{"abi":[{"type":"constructor","inputs":[{"name":"_factory","type":"address","internalType":"address"},{"name":"_weth","type":"address","internalType":"address"}],"stateMutability":"nonpayable"},{"type":"receive","stateMutability":"payable"},{"type":"function","name":"WETH","inputs":[],"outputs":[{"name":"","type":"address","internalType":"address"}],"stateMutability":"view"},{"type":"function","name":"addLiquidity","inputs":[{"name":"tokenA","type":"address","internalType":"address"},{"name":"tokenB","type":"address","internalType":"address"},{"name":"amountADesired","type":"uint256","internalType":"uint256"},{"name":"amountBDesired","type":"uint256","internalType":"uint256"},{"name":"amountAMin","type":"uint256","internalType":"uint256"},{"name":"amountBMin","type":"uint256","internalType":"uint256"},{"name":"to","type":"address","internalType":"address"},{"name":"deadline","type":"uint256","internalType":"uint256"}],"outputs":[{"name":"amountA","type":"uint256","internalType":"uint256"},{"name":"amountB","type":"uint256","internalType":"uint256"},{"name":"liquidity","type":"uint256","internalType":"uint256"}],"stateMutability":"nonpayable"},{"type":"function","name":"addLiquidityETH","inputs":[{"name":"token","type":"address","internalType":"address"},{"name":"amountTokenDesired","type":"uint256","internalType":"uint256"},{"name":"amountTokenMin","type":"uint256","internalType":"uint256"},{"name":"amountETHMin","type":"uint256","internalType":"uint256"},{"name":"to","type":"address","internalType":"address"},{"name":"deadline","type":"uint256","internalType":"uint256"}],"outputs":[{"name":"amountToken","type":"uint256","internalType":"uint256"},{"name":"amountETH","type":"uint256","internalType":"uint256"},{"name":"liquidity","type":"uint256","internalType":"uint256"}],"stateMutability":"payable"},{"type":"function","name":"factory","inputs":[],"outputs":[{"name":"","type":"address","internalType":"address"}],"stateMutability":"view"},{"type":"function","name":"getAmountsIn","inputs":[{"name":"amountOut","type":"uint256","internalType":"uint256"},{"name":"path","type":"address[]","internalType":"address[]"}],"outputs":[{"name":"amounts","type":"uint256[]","internalType":"uint256[]"}],"stateMutability":"view"},{"type":"function","name":"getAmountsOut","inputs":[{"name":"amountIn","type":"uint256","internalType":"uint256"},{"name":"path","type":"address[]","internalType":"address[]"}],"outputs":[{"name":"amounts","type":"uint256[]","internalType":"uint256[]"}],"stateMutability":"view"},{"type":"function","name":"removeLiquidity","inputs":[{"name":"tokenA","type":"address","internalType":"address"},{"name":"tokenB","type":"address","internalType":"address"},{"name":"liquidity","type":"uint256","internalType":"uint256"},{"name":"amountAMin","type":"uint256","internalType":"uint256"},{"name":"amountBMin","type":"uint256","internalType":"uint256"},{"name":"to","type":"address","internalType":"address"},{"name":"deadline","type":"uint256","internalType":"uint256"}],"outputs":[{"name":"amountA","type":"uint256","internalType":"uint256"},{"name":"amountB","type":"uint256","internalType":"uint256"}],"stateMutability":"nonpayable"},{"type":"function","name":"removeLiquidityETH","inputs":[{"name":"token","type":"address","internalType":"address"},{"name":"liquidity","type":"uint256","internalType":"uint256"},{"name":"amountTokenMin","type":"uint256","internalType":"uint256"},{"name":"amountETHMin","type":"uint256","internalType":"uint256"},{"name":"to","type":"address","internalType":"address"},{"name":"deadline","type":"uint256","internalType":"uint256"}],"outputs":[{"name":"amountToken","type":"uint256","internalType":"uint256"},{"name":"amountETH","type":"uint256","internalType":"uint256"}],"stateMutability":"nonpayable"},{"type":"function","name":"swapExactETHForTokens","inputs":[{"name":"amountOutMin","type":"uint256","internalType":"uint256"},{"name":"path","type":"address[]","internalType":"address[]"},{"name":"to","type":"address","internalType":"address"},{"name":"deadline","type":"uint256","internalType":"uint256"}],"outputs":[{"name":"amounts","type":"uint256[]","internalType":"uint256[]"}],"stateMutability":"payable"},{"type":"function","name":"swapExactTokensForETH","inputs":[{"name":"amountIn","type":"uint256","internalType":"uint256"},{"name":"amountOutMin","type":"uint256","internalType":"uint256"},{"name":"path","type":"address[]","internalType":"address[]"},{"name":"to","type":"address","internalType":"address"},{"name":"deadline","type":"uint256","internalType":"uint256"}],"outputs":[{"name":"amounts","type":"uint256[]","internalType":"uint256[]"}],"stateMutability":"nonpayable"},{"type":"function","name":"swapExactTokensForTokens","inputs":[{"name":"amountIn","type":"uint256","internalType":"uint256"},{"name":"amountOutMin","type":"uint256","internalType":"uint256"},{"name":"path","type":"address[]","internalType":"address[]"},{"name":"to","type":"address","internalType":"address"},{"name":"deadline","type":"uint256","internalType":"uint256"}],"outputs":[{"name":"amounts","type":"uint256[]","internalType":"uint256[]"}],"stateMutability":"nonpayable"}],"bytecode":{"object":"0x60c06040523480156200001157600080fd5b506040516200283538038062002835833981016040819052620000349162000069565b6001600160a01b039182166080521660a052620000a1565b80516001600160a01b03811681146200006457600080fd5b919050565b600080604083850312156200007d57600080fd5b62000088836200004c565b915062000098602084016200004c565b90509250929050565b60805160a0516126f1620001446000396000818160b0015281816101e9015281816102ee015281816103a80152818161047a015281816106c301528181610b1301528181610c1001528181610c9e015281816113a2015281816113d701528181611474015261150901526000818161025501528181610e2e01528181611662015281816118d601528181611c5301528181611f500152611ff201526126f16000f3fe6080604052600436106100a05760003560e01c8063ad5c464811610064578063ad5c4648146101d7578063baa2abde14610223578063c45a015514610243578063d06ca61f14610277578063e8e3370014610297578063f305d719146102d257600080fd5b806302751cec1461011d57806318cbafe5146101575780631f00ca741461018457806338ed1739146101a45780637ff36ab5146101c457600080fd5b3661011857336001600160a01b037f000000000000000000000000000000000000000000000000000000000000000016146101165760405162461bcd60e51b8152602060048201526011602482015270526f757465723a206f6e6c79205750415360781b60448201526064015b60405180910390fd5b005b600080fd5b34801561012957600080fd5b5061013d61013836600461208f565b6102e5565b604080519283526020830191909152015b60405180910390f35b34801561016357600080fd5b50610177610172366004612139565b61044e565b60405161014e91906121ac565b34801561019057600080fd5b5061017761019f366004612206565b6107d1565b3480156101b057600080fd5b506101776101bf366004612139565b610935565b6101776101d23660046122d7565b610aef565b3480156101e357600080fd5b5061020b7f000000000000000000000000000000000000000000000000000000000000000081565b6040516001600160a01b03909116815260200161014e565b34801561022f57600080fd5b5061013d61023e36600461233e565b610de1565b34801561024f57600080fd5b5061020b7f000000000000000000000000000000000000000000000000000000000000000081565b34801561028357600080fd5b50610177610292366004612206565b611092565b3480156102a357600080fd5b506102b76102b23660046123b0565b6111cb565b6040805193845260208401929092529082015260600161014e565b6102b76102e036600461208f565b611377565b600080610317887f00000000000000000000000000000000000000000000000000000000000000008989893089610de1565b60405163a9059cbb60e01b81526001600160a01b038781166004830152602482018490529294509092509089169063a9059cbb906044016020604051808303816000875af115801561036d573d6000803e3d6000fd5b505050506040513d601f19601f82011682018060405250810190610391919061242c565b50604051632e1a7d4d60e01b8152600481018290527f00000000000000000000000000000000000000000000000000000000000000006001600160a01b031690632e1a7d4d90602401600060405180830381600087803b1580156103f457600080fd5b505af1158015610408573d6000803e3d6000fd5b50506040516001600160a01b038716925083156108fc02915083906000818181858888f19350505050158015610442573d6000803e3d6000fd5b50965096945050505050565b6060814211156104705760405162461bcd60e51b815260040161010d9061244e565b6001600160a01b037f00000000000000000000000000000000000000000000000000000000000000001685856104a760018261248d565b8181106104b6576104b66124a0565b90506020020160208101906104cb91906124b6565b6001600160a01b0316146104f15760405162461bcd60e51b815260040161010d906124d3565b61052e8786868080602002602001604051908101604052809392919081815260200183836020028082843760009201919091525061109292505050565b9050858160018351610540919061248d565b81518110610550576105506124a0565b602002602001015110156105765760405162461bcd60e51b815260040161010d90612501565b84846000818110610589576105896124a0565b905060200201602081019061059e91906124b6565b6001600160a01b03166323b872dd33610605888860008181106105c3576105c36124a0565b90506020020160208101906105d891906124b6565b898960018181106105eb576105eb6124a0565b905060200201602081019061060091906124b6565b611636565b84600081518110610618576106186124a0565b60200260200101516040518463ffffffff1660e01b815260040161063e93929190612543565b6020604051808303816000875af115801561065d573d6000803e3d6000fd5b505050506040513d601f19601f82011682018060405250810190610681919061242c565b506106c1818686808060200260200160405190810160405280939291908181526020018383602002808284376000920191909152503092506116fe915050565b7f00000000000000000000000000000000000000000000000000000000000000006001600160a01b0316632e1a7d4d82600184516106ff919061248d565b8151811061070f5761070f6124a0565b60200260200101516040518263ffffffff1660e01b815260040161073591815260200190565b600060405180830381600087803b15801561074f57600080fd5b505af1158015610763573d6000803e3d6000fd5b50505050826001600160a01b03166108fc8260018451610783919061248d565b81518110610793576107936124a0565b60200260200101519081150290604051600060405180830381858888f193505050501580156107c6573d6000803e3d6000fd5b509695505050505050565b60606002825110156107f55760405162461bcd60e51b815260040161010d906124d3565b815167ffffffffffffffff81111561080f5761080f6121f0565b604051908082528060200260200182016040528015610838578160200160208202803683370190505b50905082816001835161084b919061248d565b8151811061085b5761085b6124a0565b602002602001018181525050600060018351610877919061248d565b90505b801561092e576000806108c98561089260018661248d565b815181106108a2576108a26124a0565b60200260200101518685815181106108bc576108bc6124a0565b6020026020010151611899565b915091506108f18484815181106108e2576108e26124a0565b60200260200101518383611a29565b846108fd60018661248d565b8151811061090d5761090d6124a0565b6020026020010181815250505050808061092690612567565b91505061087a565b5092915050565b6060814211156109575760405162461bcd60e51b815260040161010d9061244e565b6109948786868080602002602001604051908101604052809392919081815260200183836020028082843760009201919091525061109292505050565b90508581600183516109a6919061248d565b815181106109b6576109b66124a0565b602002602001015110156109dc5760405162461bcd60e51b815260040161010d90612501565b848460008181106109ef576109ef6124a0565b9050602002016020810190610a0491906124b6565b6001600160a01b03166323b872dd33610a29888860008181106105c3576105c36124a0565b84600081518110610a3c57610a3c6124a0565b60200260200101516040518463ffffffff1660e01b8152600401610a6293929190612543565b6020604051808303816000875af1158015610a81573d6000803e3d6000fd5b505050506040513d601f19601f82011682018060405250810190610aa5919061242c565b50610ae5818686808060200260200160405190810160405280939291908181526020018383602002808284376000920191909152508892506116fe915050565b9695505050505050565b606081421115610b115760405162461bcd60e51b815260040161010d9061244e565b7f00000000000000000000000000000000000000000000000000000000000000006001600160a01b031685856000818110610b4e57610b4e6124a0565b9050602002016020810190610b6391906124b6565b6001600160a01b031614610b895760405162461bcd60e51b815260040161010d906124d3565b610bc63486868080602002602001604051908101604052809392919081815260200183836020028082843760009201919091525061109292505050565b9050858160018351610bd8919061248d565b81518110610be857610be86124a0565b60200260200101511015610c0e5760405162461bcd60e51b815260040161010d90612501565b7f00000000000000000000000000000000000000000000000000000000000000006001600160a01b031663d0e30db082600081518110610c5057610c506124a0565b60200260200101516040518263ffffffff1660e01b81526004016000604051808303818588803b158015610c8357600080fd5b505af1158015610c97573d6000803e3d6000fd5b50505050507f00000000000000000000000000000000000000000000000000000000000000006001600160a01b031663a9059cbb610d0987876000818110610ce157610ce16124a0565b9050602002016020810190610cf691906124b6565b888860018181106105eb576105eb6124a0565b83600081518110610d1c57610d1c6124a0565b60200260200101516040518363ffffffff1660e01b8152600401610d559291906001600160a01b03929092168252602082015260400190565b6020604051808303816000875af1158015610d74573d6000803e3d6000fd5b505050506040513d601f19601f82011682018060405250810190610d98919061242c565b50610dd8818686808060200260200160405190810160405280939291908181526020018383602002808284376000920191909152508892506116fe915050565b95945050505050565b60008082421115610e045760405162461bcd60e51b815260040161010d9061244e565b60405163e6a4390560e01b81526001600160a01b038a8116600483015289811660248301526000917f00000000000000000000000000000000000000000000000000000000000000009091169063e6a4390590604401602060405180830381865afa158015610e77573d6000803e3d6000fd5b505050506040513d601f19601f82011682018060405250810190610e9b919061257e565b90506001600160a01b038116610ec35760405162461bcd60e51b815260040161010d9061259b565b6040516323b872dd60e01b81526001600160a01b038216906323b872dd90610ef390339085908d90600401612543565b6020604051808303816000875af1158015610f12573d6000803e3d6000fd5b505050506040513d601f19601f82011682018060405250810190610f36919061242c565b5060405163226bf2d160e21b81526001600160a01b03868116600483015260009182918416906389afcb449060240160408051808303816000875af1158015610f83573d6000803e3d6000fd5b505050506040513d601f19601f82011682018060405250810190610fa791906125cb565b915091506000610fb78d8d611aef565b509050806001600160a01b03168d6001600160a01b031614610fda578183610fdd565b82825b9096509450898610156110325760405162461bcd60e51b815260206004820152601d60248201527f526f757465723a20494e53554646494349454e545f415f414d4f554e54000000604482015260640161010d565b888510156110825760405162461bcd60e51b815260206004820152601d60248201527f526f757465723a20494e53554646494349454e545f425f414d4f554e54000000604482015260640161010d565b5050505097509795505050505050565b60606002825110156110b65760405162461bcd60e51b815260040161010d906124d3565b815167ffffffffffffffff8111156110d0576110d06121f0565b6040519080825280602002602001820160405280156110f9578160200160208202803683370190505b5090508281600081518110611110576111106124a0565b60200260200101818152505060005b6001835161112d919061248d565b81101561092e5760008061117285848151811061114c5761114c6124a0565b60200260200101518685600161116291906125ef565b815181106108bc576108bc6124a0565b9150915061119a84848151811061118b5761118b6124a0565b60200260200101518383611b20565b846111a68560016125ef565b815181106111b6576111b66124a0565b6020908102919091010152505060010161111f565b6000806000834211156111f05760405162461bcd60e51b815260040161010d9061244e565b6111fe8b8b8b8b8b8b611c25565b9093509150600061120f8c8c611f24565b6040516323b872dd60e01b81529091506001600160a01b038d16906323b872dd9061124290339085908990600401612543565b6020604051808303816000875af1158015611261573d6000803e3d6000fd5b505050506040513d601f19601f82011682018060405250810190611285919061242c565b506040516323b872dd60e01b81526001600160a01b038c16906323b872dd906112b690339085908890600401612543565b6020604051808303816000875af11580156112d5573d6000803e3d6000fd5b505050506040513d601f19601f820116820180604052508101906112f9919061242c565b506040516335313c2160e11b81526001600160a01b038781166004830152821690636a627842906024016020604051808303816000875af1158015611342573d6000803e3d6000fd5b505050506040513d601f19601f820116820180604052508101906113669190612602565b915050985098509895505050505050565b60008060008342111561139c5760405162461bcd60e51b815260040161010d9061244e565b6113ca897f00000000000000000000000000000000000000000000000000000000000000008a348b8b611c25565b909350915060006113fb8a7f0000000000000000000000000000000000000000000000000000000000000000611f24565b6040516323b872dd60e01b81529091506001600160a01b038b16906323b872dd9061142e90339085908990600401612543565b6020604051808303816000875af115801561144d573d6000803e3d6000fd5b505050506040513d601f19601f82011682018060405250810190611471919061242c565b507f00000000000000000000000000000000000000000000000000000000000000006001600160a01b031663d0e30db0846040518263ffffffff1660e01b81526004016000604051808303818588803b1580156114cd57600080fd5b505af11580156114e1573d6000803e3d6000fd5b505060405163a9059cbb60e01b81526001600160a01b038581166004830152602482018890527f000000000000000000000000000000000000000000000000000000000000000016935063a9059cbb925060440190506020604051808303816000875af1158015611556573d6000803e3d6000fd5b505050506040513d601f19601f8201168201806040525081019061157a919061242c565b506040516335313c2160e11b81526001600160a01b038781166004830152821690636a627842906024016020604051808303816000875af11580156115c3573d6000803e3d6000fd5b505050506040513d601f19601f820116820180604052508101906115e79190612602565b91508234111561162957336108fc6115ff853461248d565b6040518115909202916000818181858888f19350505050158015611627573d6000803e3d6000fd5b505b5096509650969350505050565b60405163e6a4390560e01b81526001600160a01b038381166004830152828116602483015260009182917f0000000000000000000000000000000000000000000000000000000000000000169063e6a4390590604401602060405180830381865afa1580156116a9573d6000803e3d6000fd5b505050506040513d601f19601f820116820180604052508101906116cd919061257e565b90506001600160a01b0381166116f55760405162461bcd60e51b815260040161010d9061259b565b90505b92915050565b60005b6001835161170f919061248d565b8110156118935760008084838151811061172b5761172b6124a0565b60200260200101518584600161174191906125ef565b81518110611751576117516124a0565b60200260200101519150915060006117698383611aef565b50905060008761177a8660016125ef565b8151811061178a5761178a6124a0565b60200260200101519050600080836001600160a01b0316866001600160a01b0316146117b8578260006117bc565b6000835b91509150600060028a516117d0919061248d565b88106117dc5788611809565b611809868b6117ec8b60026125ef565b815181106117fc576117fc6124a0565b6020026020010151611636565b90506118158787611636565b6040516336cd320560e11b815260048101859052602481018490526001600160a01b0383811660448301529190911690636d9a640a90606401600060405180830381600087803b15801561186857600080fd5b505af115801561187c573d6000803e3d6000fd5b505060019099019850611701975050505050505050565b50505050565b60008060006118a88585611aef565b5060405163e6a4390560e01b81526001600160a01b03878116600483015286811660248301529192506000917f0000000000000000000000000000000000000000000000000000000000000000169063e6a4390590604401602060405180830381865afa15801561191d573d6000803e3d6000fd5b505050506040513d601f19601f82011682018060405250810190611941919061257e565b90506001600160a01b0381166119695760405162461bcd60e51b815260040161010d9061259b565b600080826001600160a01b0316630902f1ac6040518163ffffffff1660e01b8152600401606060405180830381865afa1580156119aa573d6000803e3d6000fd5b505050506040513d601f19601f820116820180604052508101906119ce9190612632565b5091509150836001600160a01b0316886001600160a01b031614611a0557806001600160701b0316826001600160701b0316611a1a565b816001600160701b0316816001600160701b03165b90999098509650505050505050565b6000808411611a4a5760405162461bcd60e51b815260040161010d90612501565b600083118015611a5a5750600082115b611aa65760405162461bcd60e51b815260206004820152601e60248201527f526f757465723a20494e53554646494349454e545f4c49515549444954590000604482015260640161010d565b6000611ab28585612682565b611abe906103e8612682565b90506000611acc868561248d565b611ad8906103e5612682565b9050611ae48183612699565b610ae59060016125ef565b600080826001600160a01b0316846001600160a01b031610611b12578284611b15565b83835b909590945092505050565b6000808411611b7b5760405162461bcd60e51b815260206004820152602160248201527f526f757465723a20494e53554646494349454e545f494e5055545f414d4f554e6044820152601560fa1b606482015260840161010d565b600083118015611b8b5750600082115b611bd75760405162461bcd60e51b815260206004820152601e60248201527f526f757465723a20494e53554646494349454e545f4c49515549444954590000604482015260640161010d565b6000611be5856103e5612682565b90506000611bf38483612682565b9050600082611c04876103e8612682565b611c0e91906125ef565b9050611c1a8183612699565b979650505050505050565b60405163e6a4390560e01b81526001600160a01b0387811660048301528681166024830152600091829182917f00000000000000000000000000000000000000000000000000000000000000009091169063e6a4390590604401602060405180830381865afa158015611c9c573d6000803e3d6000fd5b505050506040513d601f19601f82011682018060405250810190611cc0919061257e565b90506001600160a01b038116611cdc5786869250925050611f19565b600080826001600160a01b0316630902f1ac6040518163ffffffff1660e01b8152600401606060405180830381865afa158015611d1d573d6000803e3d6000fd5b505050506040513d601f19601f82011682018060405250810190611d419190612632565b5091509150816001600160701b03166000148015611d6657506001600160701b038116155b15611d7957888894509450505050611f19565b6000611d858c8c611aef565b509050600080826001600160a01b03168e6001600160a01b031614611dbd57836001600160701b0316856001600160701b0316611dd2565b846001600160701b0316846001600160701b03165b9092509050600082611de4838f612682565b611dee9190612699565b90508b8111611e585789811015611e475760405162461bcd60e51b815260206004820152601d60248201527f526f757465723a20494e53554646494349454e545f425f414d4f554e54000000604482015260640161010d565b8c98509650611f1995505050505050565b600082611e65858f612682565b611e6f9190612699565b90508d811115611eb75760405162461bcd60e51b8152602060048201526013602482015272526f757465723a20657863657373697665204160681b604482015260640161010d565b8b811015611f075760405162461bcd60e51b815260206004820152601d60248201527f526f757465723a20494e53554646494349454e545f415f414d4f554e54000000604482015260640161010d565b98508b9750611f199650505050505050565b965096945050505050565b60405163e6a4390560e01b81526001600160a01b038381166004830152828116602483015260009182917f0000000000000000000000000000000000000000000000000000000000000000169063e6a4390590604401602060405180830381865afa158015611f97573d6000803e3d6000fd5b505050506040513d601f19601f82011682018060405250810190611fbb919061257e565b90506001600160a01b0381166116f5576040516364e329cb60e11b81526001600160a01b03858116600483015284811660248301527f0000000000000000000000000000000000000000000000000000000000000000169063c9c65396906044016020604051808303816000875af115801561203b573d6000803e3d6000fd5b505050506040513d601f19601f8201168201806040525081019061205f919061257e565b949350505050565b6001600160a01b038116811461207c57600080fd5b50565b803561208a81612067565b919050565b60008060008060008060c087890312156120a857600080fd5b86356120b381612067565b955060208701359450604087013593506060870135925060808701356120d881612067565b8092505060a087013590509295509295509295565b60008083601f8401126120ff57600080fd5b50813567ffffffffffffffff81111561211757600080fd5b6020830191508360208260051b850101111561213257600080fd5b9250929050565b60008060008060008060a0878903121561215257600080fd5b8635955060208701359450604087013567ffffffffffffffff81111561217757600080fd5b61218389828a016120ed565b909550935050606087013561219781612067565b80925050608087013590509295509295509295565b6020808252825182820181905260009190848201906040850190845b818110156121e4578351835292840192918401916001016121c8565b50909695505050505050565b634e487b7160e01b600052604160045260246000fd5b6000806040838503121561221957600080fd5b8235915060208084013567ffffffffffffffff8082111561223957600080fd5b818601915086601f83011261224d57600080fd5b81358181111561225f5761225f6121f0565b8060051b604051601f19603f83011681018181108582111715612284576122846121f0565b6040529182528482019250838101850191898311156122a257600080fd5b938501935b828510156122c7576122b88561207f565b845293850193928501926122a7565b8096505050505050509250929050565b6000806000806000608086880312156122ef57600080fd5b85359450602086013567ffffffffffffffff81111561230d57600080fd5b612319888289016120ed565b909550935050604086013561232d81612067565b949793965091946060013592915050565b600080600080600080600060e0888a03121561235957600080fd5b873561236481612067565b9650602088013561237481612067565b955060408801359450606088013593506080880135925060a088013561239981612067565b8092505060c0880135905092959891949750929550565b600080600080600080600080610100898b0312156123cd57600080fd5b88356123d881612067565b975060208901356123e881612067565b965060408901359550606089013594506080890135935060a0890135925060c089013561241481612067565b8092505060e089013590509295985092959890939650565b60006020828403121561243e57600080fd5b815180151581146116f557600080fd5b6020808252600f908201526e149bdd5d195c8e8811561412549151608a1b604082015260600190565b634e487b7160e01b600052601160045260246000fd5b818103818111156116f8576116f8612477565b634e487b7160e01b600052603260045260246000fd5b6000602082840312156124c857600080fd5b81356116f581612067565b6020808252601490820152730a4deeae8cae47440929cac82989288bea082a8960631b604082015260600190565b60208082526022908201527f526f757465723a20494e53554646494349454e545f4f55545055545f414d4f55604082015261139560f21b606082015260800190565b6001600160a01b039384168152919092166020820152604081019190915260600190565b60008161257657612576612477565b506000190190565b60006020828403121561259057600080fd5b81516116f581612067565b602080825260169082015275149bdd5d195c8e881c185a5c881b9bdd08199bdd5b9960521b604082015260600190565b600080604083850312156125de57600080fd5b505080516020909101519092909150565b808201808211156116f8576116f8612477565b60006020828403121561261457600080fd5b5051919050565b80516001600160701b038116811461208a57600080fd5b60008060006060848603121561264757600080fd5b6126508461261b565b925061265e6020850161261b565b9150604084015163ffffffff8116811461267757600080fd5b809150509250925092565b80820281158282048414176116f8576116f8612477565b6000826126b657634e487b7160e01b600052601260045260246000fd5b50049056fea26469706673582212204014ab7e29746bdb7f8a32dec10f27103a3f23b65b0f4591b47a0cd63106ba6f64736f6c63430008180033","linkReferences":{}},"methodIdentifiers":{"WETH()":"ad5c4648","addLiquidity(address,address,uint256,uint256,uint256,uint256,address,uint256)":"e8e33700","addLiquidityETH(address,uint256,uint256,uint256,address,uint256)":"f305d719","factory()":"c45a0155","getAmountsIn(uint256,address[])":"1f00ca74","getAmountsOut(uint256,address[])":"d06ca61f","removeLiquidity(address,address,uint256,uint256,uint256,address,uint256)":"baa2abde","removeLiquidityETH(address,uint256,uint256,uint256,address,uint256)":"02751cec","swapExactETHForTokens(uint256,address[],address,uint256)":"7ff36ab5","swapExactTokensForETH(uint256,uint256,address[],address,uint256)":"18cbafe5","swapExactTokensForTokens(uint256,uint256,address[],address,uint256)":"38ed1739"},"id":41}