{"abi":[{"type":"function","name":"allWallets","inputs":[{"name":"","type":"uint256","internalType":"uint256"}],"outputs":[{"name":"","type":"address","internalType":"address"}],"stateMutability":"view"},{"type":"function","name":"createWallet","inputs":[{"name":"agent","type":"address","internalType":"address"}],"outputs":[{"name":"","type":"address","internalType":"address"}],"stateMutability":"nonpayable"},{"type":"function","name":"getWallet","inputs":[{"name":"owner","type":"address","internalType":"address"}],"outputs":[{"name":"","type":"address","internalType":"address"}],"stateMutability":"view"},{"type":"function","name":"totalWallets","inputs":[],"outputs":[{"name":"","type":"uint256","internalType":"uint256"}],"stateMutability":"view"},{"type":"function","name":"wallets","inputs":[{"name":"","type":"address","internalType":"address"}],"outputs":[{"name":"","type":"address","internalType":"address"}],"stateMutability":"view"},{"type":"event","name":"WalletCreated","inputs":[{"name":"owner","type":"address","indexed":true,"internalType":"address"},{"name":"wallet","type":"address","indexed":true,"internalType":"address"},{"name":"agent","type":"address","indexed":false,"internalType":"address"}],"anonymous":false}],"bytecode":{"object":"0x608060405234801561001057600080fd5b50611704806100206000396000f3fe608060405234801561001057600080fd5b50600436106100575760003560e01c806304d0a6471461005c57806389b08f11146100a55780638cf8350f146100ce578063977d2c45146100e1578063b054a9e8146100f2575b600080fd5b61008861006a366004610284565b6001600160a01b039081166000908152602081905260409020541690565b6040516001600160a01b0390911681526020015b60405180910390f35b6100886100b3366004610284565b6000602081905290815260409020546001600160a01b031681565b6100886100dc3660046102b4565b610105565b60015460405190815260200161009c565b610088610100366004610284565b61012f565b6001818154811061011557600080fd5b6000918252602090912001546001600160a01b0316905081565b336000908152602081905260408120546001600160a01b0316156101925760405162461bcd60e51b8152602060048201526016602482015275466163746f72793a2077616c6c65742065786973747360501b604482015260640160405180910390fd5b600033836040516101a290610277565b6001600160a01b03928316815291166020820152604001604051809103906000f0801580156101d5573d6000803e3d6000fd5b503360008181526020818152604080832080546001600160a01b038781166001600160a01b0319928316811790935560018054808201825596527fb10e2d527612073b26eecdfd717e6a320cf44b4afac2b0732d9fcbe2b7fa0cf6909501805490911682179055905192881683529394507fca0b7dde26052d34217ef1a0cee48085a07ca32da0a918609937a307d496bbf5910160405180910390a392915050565b611401806102ce83390190565b60006020828403121561029657600080fd5b81356001600160a01b03811681146102ad57600080fd5b9392505050565b6000602082840312156102c657600080fd5b503591905056fe608060405234801561001057600080fd5b5060405161140138038061140183398101604081905261002f916100a0565b60017f9b779b17422d0df92223018b32b4d1fa46e071723d6817e2486d003becc55f0055600080546001600160a01b039384166001600160a01b031991821617909155600180549290931691161790556100d3565b80516001600160a01b038116811461009b57600080fd5b919050565b600080604083850312156100b357600080fd5b6100bc83610084565b91506100ca60208401610084565b90509250929050565b61131f806100e26000396000f3fe6080604052600436106101185760003560e01c806380734baa116100a0578063e895a8a011610064578063e895a8a01461035a578063ec37d2591461038a578063f3f51415146103aa578063f5ff5c76146103d7578063ffc8ada6146103f757600080fd5b806380734baa146102a257806388a9d554146102c25780638da5cb5b146102d55780639e5d4c491461030d578063b25d6f521461033a57600080fd5b80635c975abb116100e75780635c975abb146101ef57806369328dec146102205780636d88b24d146102405780637780f6c8146102605780637961803e1461028d57600080fd5b806316c38b3c1461015a5780632686b8e81461017c5780632803212f1461019c5780633aecd0e3146101bc57600080fd5b36610155576040513481526000907f2da466a7b24304f47e87fa2e1e5a81b9831ce54fec19055ce277ca2f39ba42c49060200160405180910390a2005b600080fd5b34801561016657600080fd5b5061017a610175366004610f4c565b610424565b005b34801561018857600080fd5b5061017a610197366004610f85565b6104af565b3480156101a857600080fd5b5061017a6101b7366004610fc1565b6105af565b3480156101c857600080fd5b506101dc6101d7366004610feb565b610632565b6040519081526020015b60405180910390f35b3480156101fb57600080fd5b5060015461021090600160a01b900460ff1681565b60405190151581526020016101e6565b34801561022c57600080fd5b5061017a61023b366004611006565b6106a3565b34801561024c57600080fd5b5061017a61025b366004610feb565b610797565b34801561026c57600080fd5b506101dc61027b366004610feb565b60046020526000908152604090205481565b34801561029957600080fd5b5061017a61080b565b3480156102ae57600080fd5b5061017a6102bd366004610f85565b61087f565b3480156102ce57600080fd5b50476101dc565b3480156102e157600080fd5b506000546102f5906001600160a01b031681565b6040516001600160a01b0390911681526020016101e6565b34801561031957600080fd5b5061032d610328366004611042565b610991565b6040516101e6919061110f565b34801561034657600080fd5b5061017a610355366004611122565b610b90565b34801561036657600080fd5b50610210610375366004610feb565b60056020526000908152604090205460ff1681565b34801561039657600080fd5b506101dc6103a5366004610feb565b610c12565b3480156103b657600080fd5b506101dc6103c5366004610feb565b60026020526000908152604090205481565b3480156103e357600080fd5b506001546102f5906001600160a01b031681565b34801561040357600080fd5b506101dc610412366004610feb565b60036020526000908152604090205481565b6000546001600160a01b031633146104575760405162461bcd60e51b815260040161044e90611155565b60405180910390fd5b60018054821515600160a01b0260ff60a01b199091161790556040517f0e2fb031ee032dc02d8011dc50b816eb450cf856abd8261680dac74f72165bd2906104a490831515815260200190565b60405180910390a150565b6001546001600160a01b031633146104d95760405162461bcd60e51b815260040161044e90611185565b600154600160a01b900460ff16156105035760405162461bcd60e51b815260040161044e906111b5565b61050b610c93565b6001600160a01b03821660009081526005602052604090205460ff1661057f5760405162461bcd60e51b8152602060048201526024808201527f4167656e7457616c6c65743a207370656e646572206e6f7420616c6c6f776c696044820152631cdd195960e21b606482015260840161044e565b6105936001600160a01b0384168383610caf565b6105aa60016000805160206112ca83398151915255565b505050565b6000546001600160a01b031633146105d95760405162461bcd60e51b815260040161044e90611155565b6001600160a01b03821660008181526002602052604090819020839055517fd3d22ffd28b02735cf411bd7f925bd8da01212c7028153e0d632e2953ac3088e906106269084815260200190565b60405180910390a25050565b6040516370a0823160e01b81523060048201526000906001600160a01b038316906370a0823190602401602060405180830381865afa158015610679573d6000803e3d6000fd5b505050506040513d601f19601f8201168201806040525081019061069d91906111e2565b92915050565b6000546001600160a01b031633146106cd5760405162461bcd60e51b815260040161044e90611155565b6106d5610c93565b6001600160a01b03831661071f576040516001600160a01b0382169083156108fc029084906000818181858888f19350505050158015610719573d6000803e3d6000fd5b50610733565b6107336001600160a01b0384168284610d2b565b806001600160a01b0316836001600160a01b03167fcbcdbdf10631a43cc99c80acace8232649421c3f4f73919f16013d47c83a687a8460405161077891815260200190565b60405180910390a36105aa60016000805160206112ca83398151915255565b6000546001600160a01b031633146107c15760405162461bcd60e51b815260040161044e90611155565b600180546001600160a01b0319166001600160a01b0383169081179091556040517f26e663c48c070d2d3c2bf6bcf88dc0a1e3ae99c58c36411130bed5924cf9526690600090a250565b6000546001600160a01b031633146108355760405162461bcd60e51b815260040161044e90611155565b6001546040516001600160a01b03909116907f1d2ac3af5c639e57ee8f25bc162ea13a1ef8a663c92a4f3e33f126dd2d4feba490600090a2600180546001600160a01b0319169055565b6001546001600160a01b031633146108a95760405162461bcd60e51b815260040161044e90611185565b600154600160a01b900460ff16156108d35760405162461bcd60e51b815260040161044e906111b5565b6108db610c93565b6108e58382610d38565b6108f96001600160a01b0384168383610d2b565b604080516001600160a01b03841660248201819052604480830185905283518084039091018152606490920183526020820180516001600160e01b031663a9059cbb60e01b17905291517f66bada64450ced3082d405853fbc0fed930cc8c4cef6962258c10b3468d3ad009161097291600091906111fb565b60405180910390a26105aa60016000805160206112ca83398151915255565b6001546060906001600160a01b031633146109be5760405162461bcd60e51b815260040161044e90611185565b600154600160a01b900460ff16156109e85760405162461bcd60e51b815260040161044e906111b5565b6109f0610c93565b6001600160a01b03851660009081526005602052604090205460ff16610a645760405162461bcd60e51b815260206004820152602360248201527f4167656e7457616c6c65743a20746172676574206e6f7420616c6c6f776c69736044820152621d195960ea1b606482015260840161044e565b8315610a7557610a75600085610d38565b600080866001600160a01b0316868686604051610a9392919061122e565b60006040518083038185875af1925050503d8060008114610ad0576040519150601f19603f3d011682016040523d82523d6000602084013e610ad5565b606091505b509150915081610b275760405162461bcd60e51b815260206004820152601860248201527f4167656e7457616c6c65743a2063616c6c206661696c65640000000000000000604482015260640161044e565b866001600160a01b03167f66bada64450ced3082d405853fbc0fed930cc8c4cef6962258c10b3468d3ad0087878785604051610b66949392919061123e565b60405180910390a2915050610b8860016000805160206112ca83398151915255565b949350505050565b6000546001600160a01b03163314610bba5760405162461bcd60e51b815260040161044e90611155565b6001600160a01b038216600081815260056020908152604091829020805460ff191685151590811790915591519182527fc595f23a04a78730b90b56a191b7a44266558248269632672ccfd6e617da14059101610626565b6001600160a01b038116600090815260026020526040812054808203610c3c575060001992915050565b6001600160a01b038316600090815260036020908152604080832054600490925290912054610c6e90620151806112a3565b4210610c7b575092915050565b808211610c89576000610b88565b610b8881836112b6565b610c9b610e52565b60026000805160206112ca83398151915255565b610cbc8383836000610e84565b6105aa57610cce838360006001610e84565b610cf657604051635274afe760e01b81526001600160a01b038416600482015260240161044e565b610d038383836001610e84565b6105aa57604051635274afe760e01b81526001600160a01b038416600482015260240161044e565b610d038383836001610eea565b6001600160a01b03821660009081526002602052604081205490819003610d5e57505050565b6001600160a01b038316600090815260046020526040902054610d8490620151806112a3565b4210610db3576001600160a01b0383166000908152600360209081526040808320839055600490915290204290555b6001600160a01b03831660009081526003602052604081208054849290610ddb9084906112a3565b90915550506001600160a01b0383166000908152600360205260409020548110156105aa5760405162461bcd60e51b815260206004820152602160248201527f4167656e7457616c6c65743a206461696c79206c696d697420657863656564656044820152601960fa1b606482015260840161044e565b6000805160206112ca83398151915254600203610e8257604051633ee5aeb560e01b815260040160405180910390fd5b565b60405163095ea7b360e01b60008181526001600160a01b038616600452602485905291602083604481808b5af192506001600051148316610ede578383151615610ed1573d6000823e3d81fd5b6000873b113d1516831692505b60405250949350505050565b60405163a9059cbb60e01b60008181526001600160a01b038616600452602485905291602083604481808b5af192506001600051148316610ede578383151615610ed1573d6000823e3d81fd5b80358015158114610f4757600080fd5b919050565b600060208284031215610f5e57600080fd5b610f6782610f37565b9392505050565b80356001600160a01b0381168114610f4757600080fd5b600080600060608486031215610f9a57600080fd5b610fa384610f6e565b9250610fb160208501610f6e565b9150604084013590509250925092565b60008060408385031215610fd457600080fd5b610fdd83610f6e565b946020939093013593505050565b600060208284031215610ffd57600080fd5b610f6782610f6e565b60008060006060848603121561101b57600080fd5b61102484610f6e565b92506020840135915061103960408501610f6e565b90509250925092565b6000806000806060858703121561105857600080fd5b61106185610f6e565b935060208501359250604085013567ffffffffffffffff8082111561108557600080fd5b818701915087601f83011261109957600080fd5b8135818111156110a857600080fd5b8860208285010111156110ba57600080fd5b95989497505060200194505050565b6000815180845260005b818110156110ef576020818501810151868301820152016110d3565b506000602082860101526020601f19601f83011685010191505092915050565b602081526000610f6760208301846110c9565b6000806040838503121561113557600080fd5b61113e83610f6e565b915061114c60208401610f37565b90509250929050565b60208082526016908201527520b3b2b73a2bb0b63632ba1d103737ba1037bbb732b960511b604082015260600190565b6020808252601690820152751059d95b9d15d85b1b195d0e881b9bdd081859d95b9d60521b604082015260600190565b6020808252601390820152721059d95b9d15d85b1b195d0e881c185d5cd959606a1b604082015260600190565b6000602082840312156111f457600080fd5b5051919050565b82815260606020820152600061121460608301846110c9565b828103604084015260008152602081019150509392505050565b8183823760009101908152919050565b84815260606020820152826060820152828460808301376000608084830101526000601f19601f8501168201608083820301604084015261128260808201856110c9565b979650505050505050565b634e487b7160e01b600052601160045260246000fd5b8082018082111561069d5761069d61128d565b8181038181111561069d5761069d61128d56fe9b779b17422d0df92223018b32b4d1fa46e071723d6817e2486d003becc55f00a26469706673582212206b1cc9f8dc91b5fb6a7f0157b32b2cbcb50a8a2e323c4e2679e117ff47dccab664736f6c63430008180033a2646970667358221220a9d0cd6bb5bf3c6ca30aeaed404908bc61df86488c4da8f2c39bb8434d5fe28f64736f6c63430008180033","linkReferences":{}},"methodIdentifiers":{"allWallets(uint256)":"8cf8350f","createWallet(address)":"b054a9e8","getWallet(address)":"04d0a647","totalWallets()":"977d2c45","wallets(address)":"89b08f11"},"id":35}