{"abi":[{"type":"constructor","inputs":[{"name":"_name","type":"string","internalType":"string"},{"name":"_symbol","type":"string","internalType":"string"},{"name":"decimals_","type":"uint8","internalType":"uint8"},{"name":"initialSupply","type":"uint256","internalType":"uint256"}],"stateMutability":"nonpayable"},{"type":"function","name":"allowance","inputs":[{"name":"owner","type":"address","internalType":"address"},{"name":"spender","type":"address","internalType":"address"}],"outputs":[{"name":"","type":"uint256","internalType":"uint256"}],"stateMutability":"view"},{"type":"function","name":"approve","inputs":[{"name":"spender","type":"address","internalType":"address"},{"name":"value","type":"uint256","internalType":"uint256"}],"outputs":[{"name":"","type":"bool","internalType":"bool"}],"stateMutability":"nonpayable"},{"type":"function","name":"balanceOf","inputs":[{"name":"account","type":"address","internalType":"address"}],"outputs":[{"name":"","type":"uint256","internalType":"uint256"}],"stateMutability":"view"},{"type":"function","name":"decimals","inputs":[],"outputs":[{"name":"","type":"uint8","internalType":"uint8"}],"stateMutability":"view"},{"type":"function","name":"faucet","inputs":[{"name":"amount","type":"uint256","internalType":"uint256"}],"outputs":[],"stateMutability":"nonpayable"},{"type":"function","name":"mint","inputs":[{"name":"to","type":"address","internalType":"address"},{"name":"amount","type":"uint256","internalType":"uint256"}],"outputs":[],"stateMutability":"nonpayable"},{"type":"function","name":"name","inputs":[],"outputs":[{"name":"","type":"string","internalType":"string"}],"stateMutability":"view"},{"type":"function","name":"owner","inputs":[],"outputs":[{"name":"","type":"address","internalType":"address"}],"stateMutability":"view"},{"type":"function","name":"renounceOwnership","inputs":[],"outputs":[],"stateMutability":"nonpayable"},{"type":"function","name":"symbol","inputs":[],"outputs":[{"name":"","type":"string","internalType":"string"}],"stateMutability":"view"},{"type":"function","name":"totalSupply","inputs":[],"outputs":[{"name":"","type":"uint256","internalType":"uint256"}],"stateMutability":"view"},{"type":"function","name":"transfer","inputs":[{"name":"to","type":"address","internalType":"address"},{"name":"value","type":"uint256","internalType":"uint256"}],"outputs":[{"name":"","type":"bool","internalType":"bool"}],"stateMutability":"nonpayable"},{"type":"function","name":"transferFrom","inputs":[{"name":"from","type":"address","internalType":"address"},{"name":"to","type":"address","internalType":"address"},{"name":"value","type":"uint256","internalType":"uint256"}],"outputs":[{"name":"","type":"bool","internalType":"bool"}],"stateMutability":"nonpayable"},{"type":"function","name":"transferOwnership","inputs":[{"name":"newOwner","type":"address","internalType":"address"}],"outputs":[],"stateMutability":"nonpayable"},{"type":"event","name":"Approval","inputs":[{"name":"owner","type":"address","indexed":true,"internalType":"address"},{"name":"spender","type":"address","indexed":true,"internalType":"address"},{"name":"value","type":"uint256","indexed":false,"internalType":"uint256"}],"anonymous":false},{"type":"event","name":"OwnershipTransferred","inputs":[{"name":"previousOwner","type":"address","indexed":true,"internalType":"address"},{"name":"newOwner","type":"address","indexed":true,"internalType":"address"}],"anonymous":false},{"type":"event","name":"Transfer","inputs":[{"name":"from","type":"address","indexed":true,"internalType":"address"},{"name":"to","type":"address","indexed":true,"internalType":"address"},{"name":"value","type":"uint256","indexed":false,"internalType":"uint256"}],"anonymous":false},{"type":"error","name":"ERC20InsufficientAllowance","inputs":[{"name":"spender","type":"address","internalType":"address"},{"name":"allowance","type":"uint256","internalType":"uint256"},{"name":"needed","type":"uint256","internalType":"uint256"}]},{"type":"error","name":"ERC20InsufficientBalance","inputs":[{"name":"sender","type":"address","internalType":"address"},{"name":"balance","type":"uint256","internalType":"uint256"},{"name":"needed","type":"uint256","internalType":"uint256"}]},{"type":"error","name":"ERC20InvalidApprover","inputs":[{"name":"approver","type":"address","internalType":"address"}]},{"type":"error","name":"ERC20InvalidReceiver","inputs":[{"name":"receiver","type":"address","internalType":"address"}]},{"type":"error","name":"ERC20InvalidSender","inputs":[{"name":"sender","type":"address","internalType":"address"}]},{"type":"error","name":"ERC20InvalidSpender","inputs":[{"name":"spender","type":"address","internalType":"address"}]},{"type":"error","name":"OwnableInvalidOwner","inputs":[{"name":"owner","type":"address","internalType":"address"}]},{"type":"error","name":"OwnableUnauthorizedAccount","inputs":[{"name":"account","type":"address","internalType":"address"}]}],"bytecode":{"object":"0x60806040523480156200001157600080fd5b50604051620010183803806200101883398101604081905262000034916200034c565b338484600362000045838262000468565b50600462000054828262000468565b5050506001600160a01b0381166200008757604051631e4fbdf760e01b8152600060048201526024015b60405180910390fd5b6200009281620000c1565b506005805460ff60a01b1916600160a01b60ff851602179055620000b7338262000113565b505050506200055c565b600580546001600160a01b038381166001600160a01b0319831681179093556040519116919082907f8be0079c531659141344cd1fd0a4f28419497f9722a3daafe3b4186f6b6457e090600090a35050565b6001600160a01b0382166200013f5760405163ec442f0560e01b8152600060048201526024016200007e565b6200014d6000838362000151565b5050565b6001600160a01b0383166200018057806002600082825462000174919062000534565b90915550620001f49050565b6001600160a01b03831660009081526020819052604090205481811015620001d55760405163391434e360e21b81526001600160a01b038516600482015260248101829052604481018390526064016200007e565b6001600160a01b03841660009081526020819052604090209082900390555b6001600160a01b038216620002125760028054829003905562000231565b6001600160a01b03821660009081526020819052604090208054820190555b816001600160a01b0316836001600160a01b03167fddf252ad1be2c89b69c2b068fc378daa952ba7f163c4a11628f55a4df523b3ef836040516200027791815260200190565b60405180910390a3505050565b634e487b7160e01b600052604160045260246000fd5b600082601f830112620002ac57600080fd5b81516001600160401b0380821115620002c957620002c962000284565b604051601f8301601f19908116603f01168101908282118183101715620002f457620002f462000284565b81604052838152602092508660208588010111156200031257600080fd5b600091505b8382101562000336578582018301518183018401529082019062000317565b6000602085830101528094505050505092915050565b600080600080608085870312156200036357600080fd5b84516001600160401b03808211156200037b57600080fd5b62000389888389016200029a565b95506020870151915080821115620003a057600080fd5b50620003af878288016200029a565b935050604085015160ff81168114620003c757600080fd5b6060959095015193969295505050565b600181811c90821680620003ec57607f821691505b6020821081036200040d57634e487b7160e01b600052602260045260246000fd5b50919050565b601f82111562000463576000816000526020600020601f850160051c810160208610156200043e5750805b601f850160051c820191505b818110156200045f578281556001016200044a565b5050505b505050565b81516001600160401b0381111562000484576200048462000284565b6200049c81620004958454620003d7565b8462000413565b602080601f831160018114620004d45760008415620004bb5750858301515b600019600386901b1c1916600185901b1785556200045f565b600085815260208120601f198616915b828110156200050557888601518255948401946001909101908401620004e4565b5085821015620005245787850151600019600388901b60f8161c191681555b5050505050600190811b01905550565b808201808211156200055657634e487b7160e01b600052601160045260246000fd5b92915050565b610aac806200056c6000396000f3fe608060405234801561001057600080fd5b50600436106100ea5760003560e01c806370a082311161008c57806395d89b411161006657806395d89b41146101e8578063a9059cbb146101f0578063dd62ed3e14610203578063f2fde38b1461023c57600080fd5b806370a082311461019c578063715018a6146101c55780638da5cb5b146101cd57600080fd5b806323b872dd116100c857806323b872dd14610142578063313ce5671461015557806340c10f1914610174578063579158971461018957600080fd5b806306fdde03146100ef578063095ea7b31461010d57806318160ddd14610130575b600080fd5b6100f761024f565b60405161010491906107ca565b60405180910390f35b61012061011b366004610835565b6102e1565b6040519015158152602001610104565b6002545b604051908152602001610104565b61012061015036600461085f565b6102fb565b600554600160a01b900460ff1660405160ff9091168152602001610104565b610187610182366004610835565b61031f565b005b61018761019736600461089b565b610335565b6101346101aa3660046108b4565b6001600160a01b031660009081526020819052604090205490565b6101876103ba565b6005546040516001600160a01b039091168152602001610104565b6100f76103ce565b6101206101fe366004610835565b6103dd565b6101346102113660046108d6565b6001600160a01b03918216600090815260016020908152604080832093909416825291909152205490565b61018761024a3660046108b4565b6103eb565b60606003805461025e90610909565b80601f016020809104026020016040519081016040528092919081815260200182805461028a90610909565b80156102d75780601f106102ac576101008083540402835291602001916102d7565b820191906000526020600020905b8154815290600101906020018083116102ba57829003601f168201915b5050505050905090565b6000336102ef818585610426565b60019150505b92915050565b600033610309858285610438565b6103148585856104b7565b506001949350505050565b610327610516565b6103318282610543565b5050565b60055461034d90600160a01b900460ff16600a610a3d565b61035990612710610a4c565b8111156103ad5760405162461bcd60e51b815260206004820152601f60248201527f4d6f636b546f6b656e3a206d617820313030303020706572206661756365740060448201526064015b60405180910390fd5b6103b73382610543565b50565b6103c2610516565b6103cc6000610579565b565b60606004805461025e90610909565b6000336102ef8185856104b7565b6103f3610516565b6001600160a01b03811661041d57604051631e4fbdf760e01b8152600060048201526024016103a4565b6103b781610579565b61043383838360016105cb565b505050565b6001600160a01b038381166000908152600160209081526040808320938616835292905220546000198110156104b157818110156104a257604051637dc7a0d960e11b81526001600160a01b038416600482015260248101829052604481018390526064016103a4565b6104b1848484840360006105cb565b50505050565b6001600160a01b0383166104e157604051634b637e8f60e11b8152600060048201526024016103a4565b6001600160a01b03821661050b5760405163ec442f0560e01b8152600060048201526024016103a4565b6104338383836106a0565b6005546001600160a01b031633146103cc5760405163118cdaa760e01b81523360048201526024016103a4565b6001600160a01b03821661056d5760405163ec442f0560e01b8152600060048201526024016103a4565b610331600083836106a0565b600580546001600160a01b038381166001600160a01b0319831681179093556040519116919082907f8be0079c531659141344cd1fd0a4f28419497f9722a3daafe3b4186f6b6457e090600090a35050565b6001600160a01b0384166105f55760405163e602df0560e01b8152600060048201526024016103a4565b6001600160a01b03831661061f57604051634a1406b160e11b8152600060048201526024016103a4565b6001600160a01b03808516600090815260016020908152604080832093871683529290522082905580156104b157826001600160a01b0316846001600160a01b03167f8c5be1e5ebec7d5bd14f71427d1e84f3dd0314c0f7b2291e5b200ac8c7c3b9258460405161069291815260200190565b60405180910390a350505050565b6001600160a01b0383166106cb5780600260008282546106c09190610a63565b9091555061073d9050565b6001600160a01b0383166000908152602081905260409020548181101561071e5760405163391434e360e21b81526001600160a01b038516600482015260248101829052604481018390526064016103a4565b6001600160a01b03841660009081526020819052604090209082900390555b6001600160a01b03821661075957600280548290039055610778565b6001600160a01b03821660009081526020819052604090208054820190555b816001600160a01b0316836001600160a01b03167fddf252ad1be2c89b69c2b068fc378daa952ba7f163c4a11628f55a4df523b3ef836040516107bd91815260200190565b60405180910390a3505050565b60006020808352835180602085015260005b818110156107f8578581018301518582016040015282016107dc565b506000604082860101526040601f19601f8301168501019250505092915050565b80356001600160a01b038116811461083057600080fd5b919050565b6000806040838503121561084857600080fd5b61085183610819565b946020939093013593505050565b60008060006060848603121561087457600080fd5b61087d84610819565b925061088b60208501610819565b9150604084013590509250925092565b6000602082840312156108ad57600080fd5b5035919050565b6000602082840312156108c657600080fd5b6108cf82610819565b9392505050565b600080604083850312156108e957600080fd5b6108f283610819565b915061090060208401610819565b90509250929050565b600181811c9082168061091d57607f821691505b60208210810361093d57634e487b7160e01b600052602260045260246000fd5b50919050565b634e487b7160e01b600052601160045260246000fd5b600181815b8085111561099457816000190482111561097a5761097a610943565b8085161561098757918102915b93841c939080029061095e565b509250929050565b6000826109ab575060016102f5565b816109b8575060006102f5565b81600181146109ce57600281146109d8576109f4565b60019150506102f5565b60ff8411156109e9576109e9610943565b50506001821b6102f5565b5060208310610133831016604e8410600b8410161715610a17575081810a6102f5565b610a218383610959565b8060001904821115610a3557610a35610943565b029392505050565b60006108cf60ff84168361099c565b80820281158282048414176102f5576102f5610943565b808201808211156102f5576102f561094356fea26469706673582212207fcb32146c10045de9d483c02faec27bec46e10acfacdc66df5f21100070224364736f6c63430008180033","linkReferences":{}},"methodIdentifiers":{"allowance(address,address)":"dd62ed3e","approve(address,uint256)":"095ea7b3","balanceOf(address)":"70a08231","decimals()":"313ce567","faucet(uint256)":"57915897","mint(address,uint256)":"40c10f19","name()":"06fdde03","owner()":"8da5cb5b","renounceOwnership()":"715018a6","symbol()":"95d89b41","totalSupply()":"18160ddd","transfer(address,uint256)":"a9059cbb","transferFrom(address,address,uint256)":"23b872dd","transferOwnership(address)":"f2fde38b"},"id":37}