{"abi":[{"type":"function","name":"allPairs","inputs":[{"name":"","type":"uint256","internalType":"uint256"}],"outputs":[{"name":"","type":"address","internalType":"address"}],"stateMutability":"view"},{"type":"function","name":"allPairsLength","inputs":[],"outputs":[{"name":"","type":"uint256","internalType":"uint256"}],"stateMutability":"view"},{"type":"function","name":"createPair","inputs":[{"name":"tokenA","type":"address","internalType":"address"},{"name":"tokenB","type":"address","internalType":"address"}],"outputs":[{"name":"pair","type":"address","internalType":"address"}],"stateMutability":"nonpayable"},{"type":"function","name":"getPair","inputs":[{"name":"","type":"address","internalType":"address"},{"name":"","type":"address","internalType":"address"}],"outputs":[{"name":"","type":"address","internalType":"address"}],"stateMutability":"view"},{"type":"event","name":"PairCreated","inputs":[{"name":"token0","type":"address","indexed":true,"internalType":"address"},{"name":"token1","type":"address","indexed":true,"internalType":"address"},{"name":"pair","type":"address","indexed":false,"internalType":"address"},{"name":"index","type":"uint256","indexed":false,"internalType":"uint256"}],"anonymous":false}],"bytecode":{"object":"0x608060405234801561001057600080fd5b50611e53806100206000396000f3fe608060405234801561001057600080fd5b506004361061004c5760003560e01c80631e3dd18b14610051578063574f2ba314610081578063c9c6539614610092578063e6a43905146100a5575b600080fd5b61006461005f3660046103c0565b6100d6565b6040516001600160a01b0390911681526020015b60405180910390f35b600154604051908152602001610078565b6100646100a03660046103f5565b610100565b6100646100b33660046103f5565b60006020818152928152604080822090935290815220546001600160a01b031681565b600181815481106100e657600080fd5b6000918252602090912001546001600160a01b0316905081565b6000816001600160a01b0316836001600160a01b0316036101685760405162461bcd60e51b815260206004820152601c60248201527f466163746f72793a204944454e544943414c5f4144445245535345530000000060448201526064015b60405180910390fd5b600080836001600160a01b0316856001600160a01b03161061018b57838561018e565b84845b90925090506001600160a01b0382166101e15760405162461bcd60e51b8152602060048201526015602482015274466163746f72793a205a45524f5f4144445245535360581b604482015260640161015f565b6001600160a01b038281166000908152602081815260408083208585168452909152902054161561024b5760405162461bcd60e51b8152602060048201526014602482015273466163746f72793a20504149525f45584953545360601b604482015260640161015f565b6000604051610259906103b3565b604051809103906000f080158015610275573d6000803e3d6000fd5b5060405163485cc95560e01b81526001600160a01b03858116600483015284811660248301529192509082169063485cc95590604401600060405180830381600087803b1580156102c557600080fd5b505af11580156102d9573d6000803e3d6000fd5b505050506001600160a01b0383811660008181526020818152604080832087861680855290835281842080546001600160a01b031990811697891697881790915584845282852086865284528285208054821688179055600180548082018255958190527fb10e2d527612073b26eecdfd717e6a320cf44b4afac2b0732d9fcbe2b7fa0cf69095018054909116871790559254815195865291850191909152939650869390927f0d3648bd0f6ba80134a33ba9275ac585d9d315f0ad8355cddefde31afa28d0e9910160405180910390a350505092915050565b6119f58061042983390190565b6000602082840312156103d257600080fd5b5035919050565b80356001600160a01b03811681146103f057600080fd5b919050565b6000806040838503121561040857600080fd5b610411836103d9565b915061041f602084016103d9565b9050925092905056fe60806040523480156200001157600080fd5b506040518060400160405280600c81526020016b0506f6c6b6153776170204c560a41b81525060405180604001604052806004815260200163050534c560e41b815250816003908162000065919062000174565b50600462000074828262000174565b5050506001620000906200008d620000a960201b60201c565b90565b55600580546001600160a01b0319163317905562000240565b7f9b779b17422d0df92223018b32b4d1fa46e071723d6817e2486d003becc55f0090565b634e487b7160e01b600052604160045260246000fd5b600181811c90821680620000f857607f821691505b6020821081036200011957634e487b7160e01b600052602260045260246000fd5b50919050565b601f8211156200016f576000816000526020600020601f850160051c810160208610156200014a5750805b601f850160051c820191505b818110156200016b5782815560010162000156565b5050505b505050565b81516001600160401b03811115620001905762000190620000cd565b620001a881620001a18454620000e3565b846200011f565b602080601f831160018114620001e05760008415620001c75750858301515b600019600386901b1c1916600185901b1785556200016b565b600085815260208120601f198616915b828110156200021157888601518255948401946001909101908401620001f0565b5085821015620002305787850151600019600388901b60f8161c191681555b5050505050600190811b01905550565b6117a580620002506000396000f3fe608060405234801561001057600080fd5b50600436106101165760003560e01c80636d9a640a116100a2578063a9059cbb11610071578063a9059cbb14610283578063ba9a7a5614610296578063c45a01551461029f578063d21220a7146102b2578063dd62ed3e146102c557600080fd5b80636d9a640a1461021757806370a082311461022a57806389afcb441461025357806395d89b411461027b57600080fd5b806318160ddd116100e957806318160ddd146101bb57806323b872dd146101cd578063313ce567146101e0578063485cc955146101ef5780636a6278421461020457600080fd5b806306fdde031461011b5780630902f1ac14610139578063095ea7b31461016d5780630dfe168114610190575b600080fd5b6101236102fe565b6040516101309190611500565b60405180910390f35b610141610390565b604080516001600160701b03948516815293909216602084015263ffffffff1690820152606001610130565b61018061017b366004611566565b6103ba565b6040519015158152602001610130565b6006546101a3906001600160a01b031681565b6040516001600160a01b039091168152602001610130565b6002545b604051908152602001610130565b6101806101db366004611590565b6103d4565b60405160128152602001610130565b6102026101fd3660046115cc565b6103f8565b005b6101bf6102123660046115ff565b610477565b61020261022536600461161a565b610701565b6101bf6102383660046115ff565b6001600160a01b031660009081526020819052604090205490565b6102666102613660046115ff565b610bce565b60408051928352602083019190915201610130565b610123610faa565b610180610291366004611566565b610fb9565b6101bf6103e881565b6005546101a3906001600160a01b031681565b6007546101a3906001600160a01b031681565b6101bf6102d33660046115cc565b6001600160a01b03918216600090815260016020908152604080832093909416825291909152205490565b60606003805461030d9061164f565b80601f01602080910402602001604051908101604052809291908181526020018280546103399061164f565b80156103865780601f1061035b57610100808354040283529160200191610386565b820191906000526020600020905b81548152906001019060200180831161036957829003601f168201915b5050505050905090565b6008546001600160701b0380821692600160701b830490911691600160e01b900463ffffffff1690565b6000336103c8818585610fc7565b60019150505b92915050565b6000336103e2858285610fd4565b6103ed858585611053565b506001949350505050565b6005546001600160a01b031633146104495760405162461bcd60e51b815260206004820152600f60248201526e2830b4b91d102327a92124a22222a760891b60448201526064015b60405180910390fd5b600680546001600160a01b039384166001600160a01b03199182161790915560078054929093169116179055565b60006104816110b2565b60008061048c610390565b506006546040516370a0823160e01b81523060048201529294509092506000916001600160a01b03909116906370a0823190602401602060405180830381865afa1580156104de573d6000803e3d6000fd5b505050506040513d601f19601f820116820180604052508101906105029190611683565b6007546040516370a0823160e01b81523060048201529192506000916001600160a01b03909116906370a0823190602401602060405180830381865afa158015610550573d6000803e3d6000fd5b505050506040513d601f19601f820116820180604052508101906105749190611683565b9050600061058b6001600160701b038616846116b2565b905060006105a26001600160701b038616846116b2565b905060006105af60025490565b9050806000036105ec576103e86105ce6105c984866116c5565b6110ce565b6105d891906116b2565b97506105e760016103e861113d565b610633565b6106306001600160701b03881661060383866116c5565b61060d91906116f2565b6001600160701b03881661062184866116c5565b61062b91906116f2565b611177565b97505b6000881161068f5760405162461bcd60e51b815260206004820152602360248201527f506169723a20494e53554646494349454e545f4c49515549444954595f4d494e60448201526215115160ea1b6064820152608401610440565b610699898961113d565b6106a3858561118f565b604080518481526020810184905233917f4c209b5fc8ad50758f13e2e1088ba56a560dff690a1c6fef26394f4c03821c4f910160405180910390a2505050505050506106fc600160008051602061175083398151915255565b919050565b6107096110b2565b60008311806107185750600082115b6107645760405162461bcd60e51b815260206004820181905260248201527f506169723a20494e53554646494349454e545f4f55545055545f414d4f554e546044820152606401610440565b60008061076f610390565b5091509150816001600160701b0316851080156107945750806001600160701b031684105b6107e05760405162461bcd60e51b815260206004820152601c60248201527f506169723a20494e53554646494349454e545f4c4951554944495459000000006044820152606401610440565b841561085f5760065460405163a9059cbb60e01b81526001600160a01b038581166004830152602482018890529091169063a9059cbb906044016020604051808303816000875af1158015610839573d6000803e3d6000fd5b505050506040513d601f19601f8201168201806040525081019061085d9190611706565b505b83156108de5760075460405163a9059cbb60e01b81526001600160a01b038581166004830152602482018790529091169063a9059cbb906044016020604051808303816000875af11580156108b8573d6000803e3d6000fd5b505050506040513d601f19601f820116820180604052508101906108dc9190611706565b505b6006546040516370a0823160e01b81523060048201526000916001600160a01b0316906370a0823190602401602060405180830381865afa158015610927573d6000803e3d6000fd5b505050506040513d601f19601f8201168201806040525081019061094b9190611683565b6007546040516370a0823160e01b81523060048201529192506000916001600160a01b03909116906370a0823190602401602060405180830381865afa158015610999573d6000803e3d6000fd5b505050506040513d601f19601f820116820180604052508101906109bd9190611683565b905060006109d4886001600160701b0387166116b2565b83116109e15760006109fe565b6109f4886001600160701b0387166116b2565b6109fe90846116b2565b90506000610a15886001600160701b0387166116b2565b8311610a22576000610a3f565b610a35886001600160701b0387166116b2565b610a3f90846116b2565b90506000821180610a505750600081115b610a9c5760405162461bcd60e51b815260206004820152601f60248201527f506169723a20494e53554646494349454e545f494e5055545f414d4f554e54006044820152606401610440565b6000610aa98360036116c5565b610ab5866103e86116c5565b610abf91906116b2565b90506000610ace8360036116c5565b610ada866103e86116c5565b610ae491906116b2565b9050610afc6001600160701b03808916908a166116c5565b610b0990620f42406116c5565b610b1382846116c5565b1015610b4b5760405162461bcd60e51b8152602060048201526007602482015266506169723a204b60c81b6044820152606401610440565b610b55868661118f565b60408051858152602081018590529081018c9052606081018b90526001600160a01b038a169033907fd78ad95fa46c994b6551d0da85fc275fe613ce37657fb8d5e3d130840159d8229060800160405180910390a35050505050505050610bc9600160008051602061175083398151915255565b505050565b600080610bd96110b2565b6006546040516370a0823160e01b81523060048201526000916001600160a01b0316906370a0823190602401602060405180830381865afa158015610c22573d6000803e3d6000fd5b505050506040513d601f19601f82011682018060405250810190610c469190611683565b6007546040516370a0823160e01b81523060048201529192506000916001600160a01b03909116906370a0823190602401602060405180830381865afa158015610c94573d6000803e3d6000fd5b505050506040513d601f19601f82011682018060405250810190610cb89190611683565b306000908152602081905260409020546002549192509080610cda85846116c5565b610ce491906116f2565b955080610cf184846116c5565b610cfb91906116f2565b9450600086118015610d0d5750600085115b610d655760405162461bcd60e51b815260206004820152602360248201527f506169723a20494e53554646494349454e545f4c49515549444954595f42555260448201526213915160ea1b6064820152608401610440565b610d6f3083611299565b60065460405163a9059cbb60e01b81526001600160a01b038981166004830152602482018990529091169063a9059cbb906044016020604051808303816000875af1158015610dc2573d6000803e3d6000fd5b505050506040513d601f19601f82011682018060405250810190610de69190611706565b5060075460405163a9059cbb60e01b81526001600160a01b038981166004830152602482018890529091169063a9059cbb906044016020604051808303816000875af1158015610e3a573d6000803e3d6000fd5b505050506040513d601f19601f82011682018060405250810190610e5e9190611706565b506006546040516370a0823160e01b81523060048201526001600160a01b03909116906370a0823190602401602060405180830381865afa158015610ea7573d6000803e3d6000fd5b505050506040513d601f19601f82011682018060405250810190610ecb9190611683565b6007546040516370a0823160e01b81523060048201529195506001600160a01b0316906370a0823190602401602060405180830381865afa158015610f14573d6000803e3d6000fd5b505050506040513d601f19601f82011682018060405250810190610f389190611683565b9250610f44848461118f565b60408051878152602081018790526001600160a01b0389169133917fdccd412f0b1252819cb1fd330b93224ca42612892bb3f4f789976e6d81936496910160405180910390a350505050610fa5600160008051602061175083398151915255565b915091565b60606004805461030d9061164f565b6000336103c8818585611053565b610bc983838360016112cf565b6001600160a01b0383811660009081526001602090815260408083209386168352929052205460001981101561104d578181101561103e57604051637dc7a0d960e11b81526001600160a01b03841660048201526024810182905260448101839052606401610440565b61104d848484840360006112cf565b50505050565b6001600160a01b03831661107d57604051634b637e8f60e11b815260006004820152602401610440565b6001600160a01b0382166110a75760405163ec442f0560e01b815260006004820152602401610440565b610bc98383836113a4565b6110ba6114ce565b600260008051602061175083398151915255565b6000600382111561112f57508060006110e86002836116f2565b6110f3906001611728565b90505b818110156111295790508060028161110e81866116f2565b6111189190611728565b61112291906116f2565b90506110f6565b50919050565b81156106fc57506001919050565b6001600160a01b0382166111675760405163ec442f0560e01b815260006004820152602401610440565b611173600083836113a4565b5050565b60008183106111865781611188565b825b9392505050565b6001600160701b0382118015906111ad57506001600160701b038111155b6111ea5760405162461bcd60e51b815260206004820152600e60248201526d506169723a204f564552464c4f5760901b6044820152606401610440565b600880546001600160701b03838116600160701b026001600160e01b0319909216908516171790556112216401000000004261173b565b6008805463ffffffff92909216600160e01b026001600160e01b038316811791829055604080516001600160701b03928316948316949094178452600160701b9092041660208301527f1c411e9a96e071241c2f21f7726b17ae89e3cab4c78be50e062b03a9fffbbad1910160405180910390a15050565b6001600160a01b0382166112c357604051634b637e8f60e11b815260006004820152602401610440565b611173826000836113a4565b6001600160a01b0384166112f95760405163e602df0560e01b815260006004820152602401610440565b6001600160a01b03831661132357604051634a1406b160e11b815260006004820152602401610440565b6001600160a01b038085166000908152600160209081526040808320938716835292905220829055801561104d57826001600160a01b0316846001600160a01b03167f8c5be1e5ebec7d5bd14f71427d1e84f3dd0314c0f7b2291e5b200ac8c7c3b9258460405161139691815260200190565b60405180910390a350505050565b6001600160a01b0383166113cf5780600260008282546113c49190611728565b909155506114419050565b6001600160a01b038316600090815260208190526040902054818110156114225760405163391434e360e21b81526001600160a01b03851660048201526024810182905260448101839052606401610440565b6001600160a01b03841660009081526020819052604090209082900390555b6001600160a01b03821661145d5760028054829003905561147c565b6001600160a01b03821660009081526020819052604090208054820190555b816001600160a01b0316836001600160a01b03167fddf252ad1be2c89b69c2b068fc378daa952ba7f163c4a11628f55a4df523b3ef836040516114c191815260200190565b60405180910390a3505050565b600080516020611750833981519152546002036114fe57604051633ee5aeb560e01b815260040160405180910390fd5b565b60006020808352835180602085015260005b8181101561152e57858101830151858201604001528201611512565b506000604082860101526040601f19601f8301168501019250505092915050565b80356001600160a01b03811681146106fc57600080fd5b6000806040838503121561157957600080fd5b6115828361154f565b946020939093013593505050565b6000806000606084860312156115a557600080fd5b6115ae8461154f565b92506115bc6020850161154f565b9150604084013590509250925092565b600080604083850312156115df57600080fd5b6115e88361154f565b91506115f66020840161154f565b90509250929050565b60006020828403121561161157600080fd5b6111888261154f565b60008060006060848603121561162f57600080fd5b83359250602084013591506116466040850161154f565b90509250925092565b600181811c9082168061166357607f821691505b60208210810361112957634e487b7160e01b600052602260045260246000fd5b60006020828403121561169557600080fd5b5051919050565b634e487b7160e01b600052601160045260246000fd5b818103818111156103ce576103ce61169c565b80820281158282048414176103ce576103ce61169c565b634e487b7160e01b600052601260045260246000fd5b600082611701576117016116dc565b500490565b60006020828403121561171857600080fd5b8151801515811461118857600080fd5b808201808211156103ce576103ce61169c565b60008261174a5761174a6116dc565b50069056fe9b779b17422d0df92223018b32b4d1fa46e071723d6817e2486d003becc55f00a2646970667358221220ca64d36e6edec0a7a881b07a7ed82becf801ec419191f0ee2989013086aeef2d64736f6c63430008180033a2646970667358221220bc5ec5bfeab5ca71300aa9892d806949bb0ce64a947b431ae46990331127c9f764736f6c63430008180033","linkReferences":{}},"methodIdentifiers":{"allPairs(uint256)":"1e3dd18b","allPairsLength()":"574f2ba3","createPair(address,address)":"c9c65396","getPair(address,address)":"e6a43905"},"id":39}