{"abi":[{"type":"constructor","inputs":[],"stateMutability":"nonpayable"},{"type":"function","name":"admin","inputs":[],"outputs":[{"name":"","type":"address","internalType":"address"}],"stateMutability":"view"},{"type":"function","name":"analyzeMultiplePairs","inputs":[{"name":"pairs","type":"address[]","internalType":"address[]"}],"outputs":[{"name":"","type":"tuple[]","internalType":"struct SignalClassifier.Signal[]","components":[{"name":"signalType","type":"uint8","internalType":"uint8"},{"name":"strength","type":"uint8","internalType":"uint8"},{"name":"score","type":"uint256","internalType":"uint256"},{"name":"timestamp","type":"uint256","internalType":"uint256"}]}],"stateMutability":"nonpayable"},{"type":"function","name":"analyzePair","inputs":[{"name":"pair","type":"address","internalType":"address"}],"outputs":[{"name":"","type":"tuple","internalType":"struct SignalClassifier.Signal","components":[{"name":"signalType","type":"uint8","internalType":"uint8"},{"name":"strength","type":"uint8","internalType":"uint8"},{"name":"score","type":"uint256","internalType":"uint256"},{"name":"timestamp","type":"uint256","internalType":"uint256"}]}],"stateMutability":"nonpayable"},{"type":"function","name":"detectArbitrage","inputs":[{"name":"pairA","type":"address","internalType":"address"},{"name":"pairB","type":"address","internalType":"address"}],"outputs":[{"name":"hasArbitrage","type":"bool","internalType":"bool"},{"name":"spreadBps","type":"uint256","internalType":"uint256"},{"name":"buyA","type":"bool","internalType":"bool"}],"stateMutability":"view"},{"type":"function","name":"getLatestSignal","inputs":[{"name":"pair","type":"address","internalType":"address"}],"outputs":[{"name":"","type":"tuple","internalType":"struct SignalClassifier.Signal","components":[{"name":"signalType","type":"uint8","internalType":"uint8"},{"name":"strength","type":"uint8","internalType":"uint8"},{"name":"score","type":"uint256","internalType":"uint256"},{"name":"timestamp","type":"uint256","internalType":"uint256"}]}],"stateMutability":"view"},{"type":"function","name":"getSignalCount","inputs":[{"name":"pair","type":"address","internalType":"address"}],"outputs":[{"name":"","type":"uint256","internalType":"uint256"}],"stateMutability":"view"},{"type":"function","name":"imbalanceThreshold","inputs":[],"outputs":[{"name":"","type":"uint256","internalType":"uint256"}],"stateMutability":"view"},{"type":"function","name":"lastPoolState","inputs":[{"name":"","type":"address","internalType":"address"}],"outputs":[{"name":"reserve0","type":"uint112","internalType":"uint112"},{"name":"reserve1","type":"uint112","internalType":"uint112"},{"name":"totalSupply","type":"uint256","internalType":"uint256"},{"name":"price0","type":"uint256","internalType":"uint256"},{"name":"price1","type":"uint256","internalType":"uint256"},{"name":"imbalanceRatio","type":"uint256","internalType":"uint256"}],"stateMutability":"view"},{"type":"function","name":"priceChangeThreshold","inputs":[],"outputs":[{"name":"","type":"uint256","internalType":"uint256"}],"stateMutability":"view"},{"type":"function","name":"signalHistory","inputs":[{"name":"","type":"address","internalType":"address"},{"name":"","type":"uint256","internalType":"uint256"}],"outputs":[{"name":"signalType","type":"uint8","internalType":"uint8"},{"name":"strength","type":"uint8","internalType":"uint8"},{"name":"score","type":"uint256","internalType":"uint256"},{"name":"timestamp","type":"uint256","internalType":"uint256"}],"stateMutability":"view"},{"type":"function","name":"strongSignalThreshold","inputs":[],"outputs":[{"name":"","type":"uint256","internalType":"uint256"}],"stateMutability":"view"},{"type":"function","name":"updateThresholds","inputs":[{"name":"_priceChange","type":"uint256","internalType":"uint256"},{"name":"_imbalance","type":"uint256","internalType":"uint256"},{"name":"_strongSignal","type":"uint256","internalType":"uint256"}],"outputs":[],"stateMutability":"nonpayable"},{"type":"event","name":"PoolAnalyzed","inputs":[{"name":"pair","type":"address","indexed":true,"internalType":"address"},{"name":"reserve0","type":"uint256","indexed":false,"internalType":"uint256"},{"name":"reserve1","type":"uint256","indexed":false,"internalType":"uint256"},{"name":"price","type":"uint256","indexed":false,"internalType":"uint256"},{"name":"imbalance","type":"uint256","indexed":false,"internalType":"uint256"}],"anonymous":false},{"type":"event","name":"SignalGenerated","inputs":[{"name":"pair","type":"address","indexed":true,"internalType":"address"},{"name":"signalType","type":"uint8","indexed":false,"internalType":"uint8"},{"name":"strength","type":"uint8","indexed":false,"internalType":"uint8"},{"name":"score","type":"uint256","indexed":false,"internalType":"uint256"},{"name":"reason","type":"string","indexed":false,"internalType":"string"}],"anonymous":false}],"bytecode":{"object":"0x608060405260c86003556101f46004556102bc60055534801561002157600080fd5b50600280546001600160a01b0319163317905561117e806100436000396000f3fe608060405234801561001057600080fd5b50600436106100b45760003560e01c80638688de88116100715780638688de88146102015780638abdcceb14610218578063efd4cdcd14610221578063f851a4401461024a578063fa8b9a0914610275578063fd19e10c1461027e57600080fd5b8063077b625c146100b95780630f7e130714610144578063152fefdb1461017c57806333f67ccf1461019c578063560d7987146101ce5780635a31f91b146101ee575b600080fd5b6101076100c7366004610dcc565b6001602081905260009182526040909120805491810154600282015460038301546004909301546001600160701b0380861695600160701b900416939086565b604080516001600160701b039788168152969095166020870152938501929092526060840152608083015260a082015260c0015b60405180910390f35b610157610152366004610dee565b610293565b6040805160ff958616815294909316602085015291830152606082015260800161013b565b61018f61018a366004610dcc565b6102e1565b60405161013b9190610e18565b6101af6101aa366004610e4d565b6103c4565b604080519315158452602084019290925215159082015260600161013b565b6101e16101dc366004610e80565b6105f0565b60405161013b9190610ef5565b61018f6101fc366004610dcc565b61071a565b61020a60035481565b60405190815260200161013b565b61020a60055481565b61020a61022f366004610dcc565b6001600160a01b031660009081526020819052604090205490565b60025461025d906001600160a01b031681565b6040516001600160a01b03909116815260200161013b565b61020a60045481565b61029161028c366004610f6a565b610b18565b005b600060205281600052604060002081815481106102af57600080fd5b600091825260209091206003909102018054600182015460029092015460ff8083169550610100909204909116925084565b6102e9610d82565b6001600160a01b0382166000908152602081905260409020546103405760405162461bcd60e51b815260206004820152600a6024820152694e6f207369676e616c7360b01b60448201526064015b60405180910390fd5b6001600160a01b0382166000908152602081905260409020805461036690600190610fac565b8154811061037657610376610fbf565b6000918252602091829020604080516080810182526003909302909101805460ff80821685526101009091041693830193909352600183015490820152600290910154606082015292915050565b60008060008060016000876001600160a01b03166001600160a01b031681526020019081526020016000206040518060c00160405290816000820160009054906101000a90046001600160701b03166001600160701b03166001600160701b0316815260200160008201600e9054906101000a90046001600160701b03166001600160701b03166001600160701b031681526020016001820154815260200160028201548152602001600382015481526020016004820154815250509050600060016000876001600160a01b03166001600160a01b031681526020019081526020016000206040518060c00160405290816000820160009054906101000a90046001600160701b03166001600160701b03166001600160701b0316815260200160008201600e9054906101000a90046001600160701b03166001600160701b03166001600160701b03168152602001600182015481526020016002820154815260200160038201548152602001600482015481525050905081606001516000148061055157506060810151155b1561056857600080600094509450945050506105e9565b8060600151826060015111156105ae576060808201519083015161058d908290610fac565b61059990612710610fd5565b6105a39190610fec565b9350600092506105e0565b606080830151908201516105c3908290610fac565b6105cf90612710610fd5565b6105d99190610fec565b9350600192505b601e8411945050505b9250925092565b606060008267ffffffffffffffff81111561060d5761060d61100e565b60405190808252806020026020018201604052801561064657816020015b610633610d82565b81526020019060019003908161062b5790505b50905060005b838110156107105730635a31f91b86868481811061066c5761066c610fbf565b90506020020160208101906106819190610dcc565b6040516001600160e01b031960e084901b1681526001600160a01b0390911660048201526024016080604051808303816000875af11580156106c7573d6000803e3d6000fd5b505050506040513d601f19601f820116820180604052508101906106eb9190611035565b8282815181106106fd576106fd610fbf565b602090810291909101015260010161064c565b5090505b92915050565b610722610d82565b6000829050600080826001600160a01b0316630902f1ac6040518163ffffffff1660e01b8152600401606060405180830381865afa158015610768573d6000803e3d6000fd5b505050506040513d601f19601f8201168201806040525081019061078c91906110cc565b50915091506000836001600160a01b03166318160ddd6040518163ffffffff1660e01b8152600401602060405180830381865afa1580156107d1573d6000803e3d6000fd5b505050506040513d601f19601f820116820180604052508101906107f5919061111c565b9050600080836001600160701b031611610810576000610841565b826001600160701b0316846001600160701b0316670de0b6b3a76400006108379190610fd5565b6108419190610fec565b9050600080856001600160701b03161161085c57600061088d565b846001600160701b0316846001600160701b0316670de0b6b3a76400006108839190610fd5565b61088d9190610fec565b90506001600160701b038086169085166000806108aa8385611135565b111561091657818311156108e9576108c28284611135565b6108cc8385610fac565b6108d890612710610fd5565b6108e29190610fec565b9050610916565b6108f38284611135565b6108fd8484610fac565b61090990612710610fd5565b6109139190610fec565b90505b60006040518060c001604052808a6001600160701b03168152602001896001600160701b0316815260200188815260200187815260200186815260200183815250905060006109658d83610b6c565b6001600160a01b038e16600081815260016020818152604080842088518154848b01516001600160701b03908116600160701b026001600160e01b031990921692169190911717815581890151818501556060808a015160028084019190915560808b015160038085019190915560a08c0151600490940193909355868552838720805480880182559088529685902089519790930290920180549489015160ff9081166101000261ffff19909616971696909617939093178555818701519385019390935590850151929091019190915551919250907f644a77c194a21ce0a9a784f44c5bca876860c33ce1df01b2f53a8371879aeaf390610a93908d908d908c9089906001600160701b0394851681529290931660208301526040820152606081019190915260800190565b60405180910390a28051602080830151604080850151815160ff95861681529490921692840192909252908201526080606082018190526000908201526001600160a01b038e16907faa7abd5fb0528d881fef14af9b77e857364b764f7086c7e9d2a55c0aa5cf50dd9060a00160405180910390a29c9b505050505050505050505050565b6002546001600160a01b03163314610b5e5760405162461bcd60e51b81526020600482015260096024820152682737ba1030b236b4b760b91b6044820152606401610337565b600392909255600455600555565b610b74610d82565b6001600160a01b0383166000908152600160208181526040808420815160c08101835281546001600160701b038082168352600160701b909104169381019390935292830154908201526002820154606082018190526003830154608083015260049092015460a0820152916101f49115610c9c57600080846060015187606001511115610c325760608086015190880151610c11908290610fac565b610c1d90612710610fd5565b610c279190610fec565b915060019050610c63565b60608086015190880151610c469082610fac565b610c5290612710610fd5565b610c5c9190610fec565b9150600090505b600354821115610c99578015610c8857610c7d8285611135565b935060029250610c99565b610c928285611135565b9350600192505b50505b6004548560a001511115610cd657600a8560a00151610cbb9190610fec565b610cc59083611135565b91508060ff16600003610cd6575060015b600085602001516001600160701b031686600001516001600160701b0316610cfe9190611135565b9050670de0b6b3a7640000811015610d1a576003915061038492505b6103e8831115610d2a576103e892505b60006005548410610d3d57506002610d52565b6101f48410610d4e57506001610d52565b5060005b6040805160808101825260ff94851681529190931660208201529182019290925242606082015295945050505050565b6040518060800160405280600060ff168152602001600060ff16815260200160008152602001600081525090565b80356001600160a01b0381168114610dc757600080fd5b919050565b600060208284031215610dde57600080fd5b610de782610db0565b9392505050565b60008060408385031215610e0157600080fd5b610e0a83610db0565b946020939093013593505050565b60808101610714828460ff815116825260ff602082015116602083015260408101516040830152606081015160608301525050565b60008060408385031215610e6057600080fd5b610e6983610db0565b9150610e7760208401610db0565b90509250929050565b60008060208385031215610e9357600080fd5b823567ffffffffffffffff80821115610eab57600080fd5b818501915085601f830112610ebf57600080fd5b813581811115610ece57600080fd5b8660208260051b8501011115610ee357600080fd5b60209290920196919550909350505050565b6020808252825182820181905260009190848201906040850190845b81811015610f5e57610f4b83855160ff815116825260ff602082015116602083015260408101516040830152606081015160608301525050565b9284019260809290920191600101610f11565b50909695505050505050565b600080600060608486031215610f7f57600080fd5b505081359360208301359350604090920135919050565b634e487b7160e01b600052601160045260246000fd5b8181038181111561071457610714610f96565b634e487b7160e01b600052603260045260246000fd5b808202811582820484141761071457610714610f96565b60008261100957634e487b7160e01b600052601260045260246000fd5b500490565b634e487b7160e01b600052604160045260246000fd5b805160ff81168114610dc757600080fd5b60006080828403121561104757600080fd5b6040516080810181811067ffffffffffffffff8211171561107857634e487b7160e01b600052604160045260246000fd5b60405261108483611024565b815261109260208401611024565b602082015260408301516040820152606083015160608201528091505092915050565b80516001600160701b0381168114610dc757600080fd5b6000806000606084860312156110e157600080fd5b6110ea846110b5565b92506110f8602085016110b5565b9150604084015163ffffffff8116811461111157600080fd5b809150509250925092565b60006020828403121561112e57600080fd5b5051919050565b8082018082111561071457610714610f9656fea2646970667358221220e4d9fed3f1a677a860eca4faac06fe7b68222fd9c151d70e10d442418cab88d864736f6c63430008180033","linkReferences":{}},"methodIdentifiers":{"admin()":"f851a440","analyzeMultiplePairs(address[])":"560d7987","analyzePair(address)":"5a31f91b","detectArbitrage(address,address)":"33f67ccf","getLatestSignal(address)":"152fefdb","getSignalCount(address)":"efd4cdcd","imbalanceThreshold()":"fa8b9a09","lastPoolState(address)":"077b625c","priceChangeThreshold()":"8688de88","signalHistory(address,uint256)":"0f7e1307","strongSignalThreshold()":"8abdcceb","updateThresholds(uint256,uint256,uint256)":"fd19e10c"},"id":7}