{"abi":[{"type":"function","name":"allWallets","inputs":[{"name":"","type":"uint256","internalType":"uint256"}],"outputs":[{"name":"","type":"address","internalType":"address"}],"stateMutability":"view"},{"type":"function","name":"createWallet","inputs":[{"name":"agent","type":"address","internalType":"address"}],"outputs":[{"name":"","type":"address","internalType":"address"}],"stateMutability":"nonpayable"},{"type":"function","name":"getWallet","inputs":[{"name":"owner","type":"address","internalType":"address"}],"outputs":[{"name":"","type":"address","internalType":"address"}],"stateMutability":"view"},{"type":"function","name":"totalWallets","inputs":[],"outputs":[{"name":"","type":"uint256","internalType":"uint256"}],"stateMutability":"view"},{"type":"function","name":"wallets","inputs":[{"name":"","type":"address","internalType":"address"}],"outputs":[{"name":"","type":"address","internalType":"address"}],"stateMutability":"view"},{"type":"event","name":"WalletCreated","inputs":[{"name":"owner","type":"address","indexed":true,"internalType":"address"},{"name":"wallet","type":"address","indexed":true,"internalType":"address"},{"name":"agent","type":"address","indexed":false,"internalType":"address"}],"anonymous":false}],"bytecode":{"object":"0x608060405234801561000f575f80fd5b506116788061001d5f395ff3fe608060405234801561000f575f80fd5b5060043610610055575f3560e01c806304d0a6471461005957806389b08f11146100a15780638cf8350f146100c9578063977d2c45146100dc578063b054a9e8146100ed575b5f80fd5b610084610067366004610277565b6001600160a01b039081165f908152602081905260409020541690565b6040516001600160a01b0390911681526020015b60405180910390f35b6100846100af366004610277565b5f602081905290815260409020546001600160a01b031681565b6100846100d73660046102a4565b610100565b600154604051908152602001610098565b6100846100fb366004610277565b610128565b6001818154811061010f575f80fd5b5f918252602090912001546001600160a01b0316905081565b335f908152602081905260408120546001600160a01b03161561018a5760405162461bcd60e51b8152602060048201526016602482015275466163746f72793a2077616c6c65742065786973747360501b604482015260640160405180910390fd5b5f33836040516101999061026a565b6001600160a01b03928316815291166020820152604001604051809103905ff0801580156101c9573d5f803e3d5ffd5b50335f8181526020818152604080832080546001600160a01b038781166001600160a01b0319928316811790935560018054808201825596527fb10e2d527612073b26eecdfd717e6a320cf44b4afac2b0732d9fcbe2b7fa0cf6909501805490911682179055905192881683529394507fca0b7dde26052d34217ef1a0cee48085a07ca32da0a918609937a307d496bbf5910160405180910390a392915050565b611387806102bc83390190565b5f60208284031215610287575f80fd5b81356001600160a01b038116811461029d575f80fd5b9392505050565b5f602082840312156102b4575f80fd5b503591905056fe608060405234801561000f575f80fd5b5060405161138738038061138783398101604081905261002e9161009d565b60017f9b779b17422d0df92223018b32b4d1fa46e071723d6817e2486d003becc55f00555f80546001600160a01b039384166001600160a01b031991821617909155600180549290931691161790556100ce565b80516001600160a01b0381168114610098575f80fd5b919050565b5f80604083850312156100ae575f80fd5b6100b783610082565b91506100c560208401610082565b90509250929050565b6112ac806100db5f395ff3fe608060405260043610610113575f3560e01c806380734baa1161009d578063e895a8a011610062578063e895a8a014610343578063ec37d25914610371578063f3f5141514610390578063f5ff5c76146103bb578063ffc8ada6146103da575f80fd5b806380734baa1461029157806388a9d554146102b05780638da5cb5b146102c25780639e5d4c49146102f8578063b25d6f5214610324575f80fd5b80635c975abb116100e35780635c975abb146101e457806369328dec146102145780636d88b24d146102335780637780f6c8146102525780637961803e1461027d575f80fd5b806316c38b3c146101535780632686b8e8146101745780632803212f146101935780633aecd0e3146101b2575f80fd5b3661014f576040513481525f907f2da466a7b24304f47e87fa2e1e5a81b9831ce54fec19055ce277ca2f39ba42c49060200160405180910390a2005b5f80fd5b34801561015e575f80fd5b5061017261016d366004610efc565b610405565b005b34801561017f575f80fd5b5061017261018e366004610f32565b61048f565b34801561019e575f80fd5b506101726101ad366004610f6b565b61058d565b3480156101bd575f80fd5b506101d16101cc366004610f93565b61060e565b6040519081526020015b60405180910390f35b3480156101ef575f80fd5b5060015461020490600160a01b900460ff1681565b60405190151581526020016101db565b34801561021f575f80fd5b5061017261022e366004610fac565b61067c565b34801561023e575f80fd5b5061017261024d366004610f93565b61076b565b34801561025d575f80fd5b506101d161026c366004610f93565b60046020525f908152604090205481565b348015610288575f80fd5b506101726107dd565b34801561029c575f80fd5b506101726102ab366004610f32565b61084f565b3480156102bb575f80fd5b50476101d1565b3480156102cd575f80fd5b505f546102e0906001600160a01b031681565b6040516001600160a01b0390911681526020016101db565b348015610303575f80fd5b50610317610312366004610fe5565b61095f565b6040516101db91906110a8565b34801561032f575f80fd5b5061017261033e3660046110ba565b610b57565b34801561034e575f80fd5b5061020461035d366004610f93565b60056020525f908152604090205460ff1681565b34801561037c575f80fd5b506101d161038b366004610f93565b610bd7565b34801561039b575f80fd5b506101d16103aa366004610f93565b60026020525f908152604090205481565b3480156103c6575f80fd5b506001546102e0906001600160a01b031681565b3480156103e5575f80fd5b506101d16103f4366004610f93565b60036020525f908152604090205481565b5f546001600160a01b031633146104375760405162461bcd60e51b815260040161042e906110eb565b60405180910390fd5b60018054821515600160a01b0260ff60a01b199091161790556040517f0e2fb031ee032dc02d8011dc50b816eb450cf856abd8261680dac74f72165bd29061048490831515815260200190565b60405180910390a150565b6001546001600160a01b031633146104b95760405162461bcd60e51b815260040161042e9061111b565b600154600160a01b900460ff16156104e35760405162461bcd60e51b815260040161042e9061114b565b6104eb610c54565b6001600160a01b0382165f9081526005602052604090205460ff1661055e5760405162461bcd60e51b8152602060048201526024808201527f4167656e7457616c6c65743a207370656e646572206e6f7420616c6c6f776c696044820152631cdd195960e21b606482015260840161042e565b6105726001600160a01b0384168383610c6f565b61058860015f8051602061125783398151915255565b505050565b5f546001600160a01b031633146105b65760405162461bcd60e51b815260040161042e906110eb565b6001600160a01b0382165f8181526002602052604090819020839055517fd3d22ffd28b02735cf411bd7f925bd8da01212c7028153e0d632e2953ac3088e906106029084815260200190565b60405180910390a25050565b6040516370a0823160e01b81523060048201525f906001600160a01b038316906370a0823190602401602060405180830381865afa158015610652573d5f803e3d5ffd5b505050506040513d601f19601f820116820180604052508101906106769190611178565b92915050565b5f546001600160a01b031633146106a55760405162461bcd60e51b815260040161042e906110eb565b6106ad610c54565b6001600160a01b0383166106f4576040516001600160a01b0382169083156108fc029084905f818181858888f193505050501580156106ee573d5f803e3d5ffd5b50610708565b6107086001600160a01b0384168284610ce9565b806001600160a01b0316836001600160a01b03167fcbcdbdf10631a43cc99c80acace8232649421c3f4f73919f16013d47c83a687a8460405161074d91815260200190565b60405180910390a361058860015f8051602061125783398151915255565b5f546001600160a01b031633146107945760405162461bcd60e51b815260040161042e906110eb565b600180546001600160a01b0319166001600160a01b0383169081179091556040517f26e663c48c070d2d3c2bf6bcf88dc0a1e3ae99c58c36411130bed5924cf95266905f90a250565b5f546001600160a01b031633146108065760405162461bcd60e51b815260040161042e906110eb565b6001546040516001600160a01b03909116907f1d2ac3af5c639e57ee8f25bc162ea13a1ef8a663c92a4f3e33f126dd2d4feba4905f90a2600180546001600160a01b0319169055565b6001546001600160a01b031633146108795760405162461bcd60e51b815260040161042e9061111b565b600154600160a01b900460ff16156108a35760405162461bcd60e51b815260040161042e9061114b565b6108ab610c54565b6108b58382610cf6565b6108c96001600160a01b0384168383610ce9565b604080516001600160a01b03841660248201819052604480830185905283518084039091018152606490920183526020820180516001600160e01b031663a9059cbb60e01b17905291517f66bada64450ced3082d405853fbc0fed930cc8c4cef6962258c10b3468d3ad0091610941915f919061118f565b60405180910390a261058860015f8051602061125783398151915255565b6001546060906001600160a01b0316331461098c5760405162461bcd60e51b815260040161042e9061111b565b600154600160a01b900460ff16156109b65760405162461bcd60e51b815260040161042e9061114b565b6109be610c54565b6001600160a01b0385165f9081526005602052604090205460ff16610a315760405162461bcd60e51b815260206004820152602360248201527f4167656e7457616c6c65743a20746172676574206e6f7420616c6c6f776c69736044820152621d195960ea1b606482015260840161042e565b8315610a4157610a415f85610cf6565b5f80866001600160a01b0316868686604051610a5e9291906111c0565b5f6040518083038185875af1925050503d805f8114610a98576040519150601f19603f3d011682016040523d82523d5f602084013e610a9d565b606091505b509150915081610aef5760405162461bcd60e51b815260206004820152601860248201527f4167656e7457616c6c65743a2063616c6c206661696c65640000000000000000604482015260640161042e565b866001600160a01b03167f66bada64450ced3082d405853fbc0fed930cc8c4cef6962258c10b3468d3ad0087878785604051610b2e94939291906111cf565b60405180910390a2915050610b4f60015f8051602061125783398151915255565b949350505050565b5f546001600160a01b03163314610b805760405162461bcd60e51b815260040161042e906110eb565b6001600160a01b0382165f81815260056020908152604091829020805460ff191685151590811790915591519182527fc595f23a04a78730b90b56a191b7a44266558248269632672ccfd6e617da14059101610602565b6001600160a01b0381165f90815260026020526040812054808203610bff57505f1992915050565b6001600160a01b0383165f90815260036020908152604080832054600490925290912054610c309062015180611230565b4210610c3d575092915050565b808211610c4a575f610b4f565b610b4f8183611243565b610c5c610e0b565b60025f8051602061125783398151915255565b610c7b8383835f610e3c565b61058857610c8c83835f6001610e3c565b610cb457604051635274afe760e01b81526001600160a01b038416600482015260240161042e565b610cc18383836001610e3c565b61058857604051635274afe760e01b81526001600160a01b038416600482015260240161042e565b610cc18383836001610e9e565b6001600160a01b0382165f9081526002602052604081205490819003610d1b57505050565b6001600160a01b0383165f90815260046020526040902054610d409062015180611230565b4210610d6e576001600160a01b0383165f908152600360209081526040808320839055600490915290204290555b6001600160a01b0383165f9081526003602052604081208054849290610d95908490611230565b90915550506001600160a01b0383165f908152600360205260409020548110156105885760405162461bcd60e51b815260206004820152602160248201527f4167656e7457616c6c65743a206461696c79206c696d697420657863656564656044820152601960fa1b606482015260840161042e565b5f8051602061125783398151915254600203610e3a57604051633ee5aeb560e01b815260040160405180910390fd5b565b60405163095ea7b360e01b5f8181526001600160a01b038616600452602485905291602083604481808b5af1925060015f51148316610e92578383151615610e86573d5f823e3d81fd5b5f873b113d1516831692505b60405250949350505050565b60405163a9059cbb60e01b5f8181526001600160a01b038616600452602485905291602083604481808b5af1925060015f51148316610e92578383151615610e86573d5f823e3d81fd5b80358015158114610ef7575f80fd5b919050565b5f60208284031215610f0c575f80fd5b610f1582610ee8565b9392505050565b80356001600160a01b0381168114610ef7575f80fd5b5f805f60608486031215610f44575f80fd5b610f4d84610f1c565b9250610f5b60208501610f1c565b9150604084013590509250925092565b5f8060408385031215610f7c575f80fd5b610f8583610f1c565b946020939093013593505050565b5f60208284031215610fa3575f80fd5b610f1582610f1c565b5f805f60608486031215610fbe575f80fd5b610fc784610f1c565b925060208401359150610fdc60408501610f1c565b90509250925092565b5f805f8060608587031215610ff8575f80fd5b61100185610f1c565b935060208501359250604085013567ffffffffffffffff80821115611024575f80fd5b818701915087601f830112611037575f80fd5b813581811115611045575f80fd5b886020828501011115611056575f80fd5b95989497505060200194505050565b5f81518084525f5b818110156110895760208185018101518683018201520161106d565b505f602082860101526020601f19601f83011685010191505092915050565b602081525f610f156020830184611065565b5f80604083850312156110cb575f80fd5b6110d483610f1c565b91506110e260208401610ee8565b90509250929050565b60208082526016908201527520b3b2b73a2bb0b63632ba1d103737ba1037bbb732b960511b604082015260600190565b6020808252601690820152751059d95b9d15d85b1b195d0e881b9bdd081859d95b9d60521b604082015260600190565b6020808252601390820152721059d95b9d15d85b1b195d0e881c185d5cd959606a1b604082015260600190565b5f60208284031215611188575f80fd5b5051919050565b828152606060208201525f6111a76060830184611065565b82810360408401525f8152602081019150509392505050565b818382375f9101908152919050565b84815260606020820152826060820152828460808301375f608084830101525f601f19601f850116820160808382030160408401526112116080820185611065565b979650505050505050565b634e487b7160e01b5f52601160045260245ffd5b808201808211156106765761067661121c565b818103818111156106765761067661121c56fe9b779b17422d0df92223018b32b4d1fa46e071723d6817e2486d003becc55f00a2646970667358221220563936e08aeb469ac39027a2fed44287fce04739ac1a6f19172e7e47a576c31c64736f6c63430008180033a2646970667358221220948c40736a9262104ac1c45161e22d758064d917dd19d52cf2d3f9582cd1aee264736f6c63430008180033","linkReferences":{}},"methodIdentifiers":{"allWallets(uint256)":"8cf8350f","createWallet(address)":"b054a9e8","getWallet(address)":"04d0a647","totalWallets()":"977d2c45","wallets(address)":"89b08f11"},"id":14}