{"abi":[{"type":"constructor","inputs":[{"name":"_router","type":"address","internalType":"address"},{"name":"_wpas","type":"address","internalType":"address"}],"stateMutability":"nonpayable"},{"type":"function","name":"admin","inputs":[],"outputs":[{"name":"","type":"address","internalType":"address"}],"stateMutability":"view"},{"type":"function","name":"executeAddLiquidityPAS","inputs":[{"name":"wallet","type":"address","internalType":"contract AgentWallet"},{"name":"token","type":"address","internalType":"address"},{"name":"amountTokenDesired","type":"uint256","internalType":"uint256"},{"name":"amountTokenMin","type":"uint256","internalType":"uint256"},{"name":"amountPASMin","type":"uint256","internalType":"uint256"},{"name":"amountPAS","type":"uint256","internalType":"uint256"},{"name":"deadline","type":"uint256","internalType":"uint256"}],"outputs":[],"stateMutability":"nonpayable"},{"type":"function","name":"executeRemoveLiquidityPAS","inputs":[{"name":"wallet","type":"address","internalType":"contract AgentWallet"},{"name":"token","type":"address","internalType":"address"},{"name":"pair","type":"address","internalType":"address"},{"name":"liquidity","type":"uint256","internalType":"uint256"},{"name":"amountTokenMin","type":"uint256","internalType":"uint256"},{"name":"amountPASMin","type":"uint256","internalType":"uint256"},{"name":"deadline","type":"uint256","internalType":"uint256"}],"outputs":[],"stateMutability":"nonpayable"},{"type":"function","name":"executeSwapExactPASForTokens","inputs":[{"name":"wallet","type":"address","internalType":"contract AgentWallet"},{"name":"amountIn","type":"uint256","internalType":"uint256"},{"name":"amountOutMin","type":"uint256","internalType":"uint256"},{"name":"tokenOut","type":"address","internalType":"address"},{"name":"deadline","type":"uint256","internalType":"uint256"}],"outputs":[],"stateMutability":"nonpayable"},{"type":"function","name":"executeSwapExactTokensForPAS","inputs":[{"name":"wallet","type":"address","internalType":"contract AgentWallet"},{"name":"tokenIn","type":"address","internalType":"address"},{"name":"amountIn","type":"uint256","internalType":"uint256"},{"name":"amountOutMin","type":"uint256","internalType":"uint256"},{"name":"deadline","type":"uint256","internalType":"uint256"}],"outputs":[],"stateMutability":"nonpayable"},{"type":"function","name":"executeSwapExactTokensForTokens","inputs":[{"name":"wallet","type":"address","internalType":"contract AgentWallet"},{"name":"tokenIn","type":"address","internalType":"address"},{"name":"tokenOut","type":"address","internalType":"address"},{"name":"amountIn","type":"uint256","internalType":"uint256"},{"name":"amountOutMin","type":"uint256","internalType":"uint256"},{"name":"deadline","type":"uint256","internalType":"uint256"}],"outputs":[],"stateMutability":"nonpayable"},{"type":"function","name":"executeTransferNative","inputs":[{"name":"wallet","type":"address","internalType":"contract AgentWallet"},{"name":"to","type":"address","internalType":"address"},{"name":"amount","type":"uint256","internalType":"uint256"}],"outputs":[],"stateMutability":"nonpayable"},{"type":"function","name":"executeTransferToken","inputs":[{"name":"wallet","type":"address","internalType":"contract AgentWallet"},{"name":"token","type":"address","internalType":"address"},{"name":"to","type":"address","internalType":"address"},{"name":"amount","type":"uint256","internalType":"uint256"}],"outputs":[],"stateMutability":"nonpayable"},{"type":"function","name":"getPoolInfo","inputs":[{"name":"tokenA","type":"address","internalType":"address"},{"name":"tokenB","type":"address","internalType":"address"}],"outputs":[{"name":"reserveA","type":"uint112","internalType":"uint112"},{"name":"reserveB","type":"uint112","internalType":"uint112"},{"name":"totalSupply","type":"uint256","internalType":"uint256"}],"stateMutability":"view"},{"type":"function","name":"getSwapQuote","inputs":[{"name":"tokenIn","type":"address","internalType":"address"},{"name":"tokenOut","type":"address","internalType":"address"},{"name":"amountIn","type":"uint256","internalType":"uint256"}],"outputs":[{"name":"amountOut","type":"uint256","internalType":"uint256"}],"stateMutability":"view"},{"type":"function","name":"getToken","inputs":[{"name":"symbol","type":"string","internalType":"string"}],"outputs":[{"name":"","type":"address","internalType":"address"}],"stateMutability":"view"},{"type":"function","name":"registerToken","inputs":[{"name":"symbol","type":"string","internalType":"string"},{"name":"token","type":"address","internalType":"address"}],"outputs":[],"stateMutability":"nonpayable"},{"type":"function","name":"registeredSymbols","inputs":[{"name":"","type":"uint256","internalType":"uint256"}],"outputs":[{"name":"","type":"string","internalType":"string"}],"stateMutability":"view"},{"type":"function","name":"router","inputs":[],"outputs":[{"name":"","type":"address","internalType":"address"}],"stateMutability":"view"},{"type":"function","name":"tokenRegistry","inputs":[{"name":"","type":"bytes32","internalType":"bytes32"}],"outputs":[{"name":"","type":"address","internalType":"address"}],"stateMutability":"view"},{"type":"function","name":"wpas","inputs":[],"outputs":[{"name":"","type":"address","internalType":"address"}],"stateMutability":"view"},{"type":"event","name":"IntentExecuted","inputs":[{"name":"wallet","type":"address","indexed":true,"internalType":"address"},{"name":"intentType","type":"string","indexed":false,"internalType":"string"},{"name":"params","type":"bytes","indexed":false,"internalType":"bytes"},{"name":"success","type":"bool","indexed":false,"internalType":"bool"}],"anonymous":false},{"type":"event","name":"TokenRegistered","inputs":[{"name":"symbol","type":"string","indexed":false,"internalType":"string"},{"name":"token","type":"address","indexed":false,"internalType":"address"}],"anonymous":false}],"bytecode":{"object":"0x60c060405234801562000010575f80fd5b506040516200225838038062002258833981016040819052620000339162000078565b6001600160a01b039182166080521660a0525f80546001600160a01b03191633179055620000ae565b80516001600160a01b038116811462000073575f80fd5b919050565b5f80604083850312156200008a575f80fd5b62000095836200005c565b9150620000a5602084016200005c565b90509250929050565b60805160a051612111620001475f395f818161022a01528181610385015281816103c0015281816104db01528181610cb901528181611089015261127501525f81816102a90152818161057b0152818161062d015281816108730152818161094601528181610a4101528181610b1401528181610bf601528181610d8501528181610fc601528181611189015261137201526121115ff3fe608060405234801561000f575f80fd5b50600436106100fb575f3560e01c80636f6d4a3b11610093578063e5eaa25d11610063578063e5eaa25d1461025f578063ec77aa5e14610272578063f851a44014610292578063f887ea40146102a4575f80fd5b80636f6d4a3b146101ff5780638e081fb214610212578063c0fbda9014610225578063c1733f681461024c575f80fd5b80634cc5e009116100ce5780634cc5e009146101b357806359e5bf30146101c657806366651cff146101d957806369f667ed146101ec575f80fd5b80631043fa39146100ff5780633ec37b46146101445780634260677114610159578063486e51f41461017a575b5f80fd5b61012761010d366004611605565b60016020525f90815260409020546001600160a01b031681565b6040516001600160a01b0390911681526020015b60405180910390f35b610157610152366004611633565b6102cb565b005b61016c610167366004611681565b610380565b60405190815260200161013b565b61018d6101883660046116bf565b610627565b604080516001600160701b0394851681529390921660208401529082015260600161013b565b6101576101c13660046116f6565b61084d565b6101576101d4366004611753565b610a1b565b6101576101e73660046117bc565b610bd0565b6101576101fa36600461184e565b610e59565b61015761020d3660046118a1565b610fa0565b610157610220366004611902565b611253565b6101277f000000000000000000000000000000000000000000000000000000000000000081565b61012761025a366004611950565b611445565b61015761026d366004611681565b611493565b610285610280366004611605565b61155f565b60405161013b91906119dc565b5f54610127906001600160a01b031681565b6101277f000000000000000000000000000000000000000000000000000000000000000081565b604051634039a5d560e11b81526001600160a01b038516906380734baa906102fb908690869086906004016119f5565b5f604051808303815f87803b158015610312575f80fd5b505af1158015610324573d5f803e3d5ffd5b50505050836001600160a01b03165f805160206120bc833981519152848484604051602001610355939291906119f5565b60408051601f198184030181529082905261037291600190611a19565b60405180910390a250505050565b5f60607f00000000000000000000000000000000000000000000000000000000000000006001600160a01b0316856001600160a01b031614806103f457507f00000000000000000000000000000000000000000000000000000000000000006001600160a01b0316846001600160a01b0316145b1561048557604080516002808252606082018352909160208301908036833701905050905084815f8151811061042c5761042c611a75565b60200260200101906001600160a01b031690816001600160a01b031681525050838160018151811061046057610460611a75565b60200260200101906001600160a01b031690816001600160a01b031681525050610562565b60408051600380825260808201909252906020820160608036833701905050905084815f815181106104b9576104b9611a75565b60200260200101906001600160a01b031690816001600160a01b0316815250507f00000000000000000000000000000000000000000000000000000000000000008160018151811061050d5761050d611a75565b60200260200101906001600160a01b031690816001600160a01b031681525050838160028151811061054157610541611a75565b60200260200101906001600160a01b031690816001600160a01b0316815250505b60405163d06ca61f60e01b81525f906001600160a01b037f0000000000000000000000000000000000000000000000000000000000000000169063d06ca61f906105b29087908690600401611acc565b5f60405180830381865afa1580156105cc573d5f803e3d5ffd5b505050506040513d5f823e601f3d908101601f191682016040526105f39190810190611b1d565b905080600182516106049190611bbe565b8151811061061457610614611a75565b6020026020010151925050509392505050565b5f805f807f00000000000000000000000000000000000000000000000000000000000000006001600160a01b031663c45a01556040518163ffffffff1660e01b8152600401602060405180830381865afa158015610687573d5f803e3d5ffd5b505050506040513d601f19601f820116820180604052508101906106ab9190611bdd565b60405163e6a4390560e01b81526001600160a01b0388811660048301528781166024830152919091169063e6a4390590604401602060405180830381865afa1580156106f9573d5f803e3d5ffd5b505050506040513d601f19601f8201168201806040525081019061071d9190611bdd565b90506001600160a01b03811661077a5760405162461bcd60e51b815260206004820152601e60248201527f496e74656e744578656375746f723a2070616972206e6f7420666f756e64000060448201526064015b60405180910390fd5b806001600160a01b0316630902f1ac6040518163ffffffff1660e01b8152600401606060405180830381865afa1580156107b6573d5f803e3d5ffd5b505050506040513d601f19601f820116820180604052508101906107da9190611c13565b508094508195505050806001600160a01b03166318160ddd6040518163ffffffff1660e01b8152600401602060405180830381865afa15801561081f573d5f803e3d5ffd5b505050506040513d601f19601f820116820180604052508101906108439190611c54565b9150509250925092565b6040516304d0d71d60e31b81526001600160a01b03881690632686b8e89061089d9089907f0000000000000000000000000000000000000000000000000000000000000000908a906004016119f5565b5f604051808303815f87803b1580156108b4575f80fd5b505af11580156108c6573d5f803e3d5ffd5b505050505f63f305d71960e01b878787878c876040516024016108ee96959493929190611c6b565b60408051601f198184030181529181526020820180516001600160e01b03166001600160e01b0319909416939093179092529051639e5d4c4960e01b81529091506001600160a01b03891690639e5d4c4990610972907f00000000000000000000000000000000000000000000000000000000000000009087908690600401611ca6565b5f604051808303815f875af115801561098d573d5f803e3d5ffd5b505050506040513d5f823e601f3d908101601f191682016040526109b49190810190611cd5565b50604080516001600160a01b03898116602083015291810188905260608101859052908916905f805160206120bc8339815191529060800160408051601f1981840301815290829052610a0991600190611d64565b60405180910390a25050505050505050565b6040516304d0d71d60e31b81526001600160a01b03881690632686b8e890610a6b9088907f00000000000000000000000000000000000000000000000000000000000000009089906004016119f5565b5f604051808303815f87803b158015610a82575f80fd5b505af1158015610a94573d5f803e3d5ffd5b505050505f6302751cec60e01b878686868c87604051602401610abc96959493929190611c6b565b60408051601f198184030181529181526020820180516001600160e01b03166001600160e01b0319909416939093179092529051639e5d4c4960e01b81529091506001600160a01b03891690639e5d4c4990610b40907f0000000000000000000000000000000000000000000000000000000000000000905f908690600401611ca6565b5f604051808303815f875af1158015610b5b573d5f803e3d5ffd5b505050506040513d5f823e601f3d908101601f19168201604052610b829190810190611cd5565b50604080516001600160a01b038981166020830152918101879052908916905f805160206120bc8339815191529060600160408051601f1981840301815290829052610a0991600190611d9e565b6040516304d0d71d60e31b81526001600160a01b03861690632686b8e890610c209087907f00000000000000000000000000000000000000000000000000000000000000009088906004016119f5565b5f604051808303815f87803b158015610c37575f80fd5b505af1158015610c49573d5f803e3d5ffd5b505f925060029150610c589050565b604051908082528060200260200182016040528015610c81578160200160208202803683370190505b50905084815f81518110610c9757610c97611a75565b60200260200101906001600160a01b031690816001600160a01b0316815250507f000000000000000000000000000000000000000000000000000000000000000081600181518110610ceb57610ceb611a75565b60200260200101906001600160a01b031690816001600160a01b0316815250505f6318cbafe560e01b8585848a87604051602401610d2d959493929190611ddb565b60408051601f198184030181529181526020820180516001600160e01b03166001600160e01b0319909416939093179092529051639e5d4c4960e01b81529091506001600160a01b03881690639e5d4c4990610db1907f0000000000000000000000000000000000000000000000000000000000000000905f908690600401611ca6565b5f604051808303815f875af1158015610dcc573d5f803e3d5ffd5b505050506040513d5f823e601f3d908101601f19168201604052610df39190810190611cd5565b50604080516001600160a01b03888116602083015291810187905260608101869052908816905f805160206120bc8339815191529060800160408051601f1981840301815290829052610e4891600190611e16565b60405180910390a250505050505050565b5f546001600160a01b03163314610eb25760405162461bcd60e51b815260206004820152601960248201527f496e74656e744578656375746f723a206e6f742061646d696e000000000000006044820152606401610771565b5f8383604051602001610ec6929190611e52565b60408051601f1981840301815291815281516020928301205f81815260019093529120549091506001600160a01b0316610f3857600280546001810182555f919091527f405787fa12a823e0f2b7631cc41b3ba8828b3321ca811111fa75cd3aa3bb5ace01610f36848683611ee5565b505b5f818152600160205260409081902080546001600160a01b0319166001600160a01b038516179055517f0fd4145e0bd1305ef15c2adcf308e601b33f5ccd4d010ae8270aa596a6b2d59490610f9290869086908690611f9f565b60405180910390a150505050565b6040516304d0d71d60e31b81526001600160a01b03871690632686b8e890610ff09088907f00000000000000000000000000000000000000000000000000000000000000009088906004016119f5565b5f604051808303815f87803b158015611007575f80fd5b505af1158015611019573d5f803e3d5ffd5b505f9250600391506110289050565b604051908082528060200260200182016040528015611051578160200160208202803683370190505b50905085815f8151811061106757611067611a75565b60200260200101906001600160a01b031690816001600160a01b0316815250507f0000000000000000000000000000000000000000000000000000000000000000816001815181106110bb576110bb611a75565b60200260200101906001600160a01b031690816001600160a01b03168152505084816002815181106110ef576110ef611a75565b60200260200101906001600160a01b031690816001600160a01b0316815250505f6338ed173960e01b8585848b87604051602401611131959493929190611ddb565b60408051601f198184030181529181526020820180516001600160e01b03166001600160e01b0319909416939093179092529051639e5d4c4960e01b81529091506001600160a01b03891690639e5d4c49906111b5907f0000000000000000000000000000000000000000000000000000000000000000905f908690600401611ca6565b5f604051808303815f875af11580156111d0573d5f803e3d5ffd5b505050506040513d5f823e601f3d908101601f191682016040526111f79190810190611cd5565b50604080516001600160a01b038981166020830152888116828401526060820188905260808083018890528351808403909101815260a0909201928390528a16915f805160206120bc83398151915291610a0991600190611fdf565b6040805160028082526060820183525f926020830190803683370190505090507f0000000000000000000000000000000000000000000000000000000000000000815f815181106112a6576112a6611a75565b60200260200101906001600160a01b031690816001600160a01b03168152505082816001815181106112da576112da611a75565b60200260200101906001600160a01b031690816001600160a01b0316815250505f637ff36ab560e01b8583898660405160240161131a9493929190612013565b60408051601f198184030181529181526020820180516001600160e01b03166001600160e01b0319909416939093179092529051639e5d4c4960e01b81529091506001600160a01b03881690639e5d4c499061139e907f0000000000000000000000000000000000000000000000000000000000000000908a908690600401611ca6565b5f604051808303815f875af11580156113b9573d5f803e3d5ffd5b505050506040513d5f823e601f3d908101601f191682016040526113e09190810190611cd5565b50866001600160a01b03165f805160206120bc833981519152878688604051602001611428939291909283526001600160a01b03919091166020830152604082015260600190565b60408051601f1981840301815290829052610e4891600190612047565b5f60015f848460405160200161145c929190611e52565b60408051601f198184030181529181528151602092830120835290820192909252015f20546001600160a01b031690505b92915050565b604080516020810182525f81529051639e5d4c4960e01b81526001600160a01b03851690639e5d4c49906114cf90869086908690600401611ca6565b5f604051808303815f875af11580156114ea573d5f803e3d5ffd5b505050506040513d5f823e601f3d908101601f191682016040526115119190810190611cd5565b50604080516001600160a01b038581166020830152918101849052908516905f805160206120bc8339815191529060600160408051601f198184030181529082905261037291600190612083565b6002818154811061156e575f80fd5b905f5260205f20015f91509050805461158690611e61565b80601f01602080910402602001604051908101604052809291908181526020018280546115b290611e61565b80156115fd5780601f106115d4576101008083540402835291602001916115fd565b820191905f5260205f20905b8154815290600101906020018083116115e057829003601f168201915b505050505081565b5f60208284031215611615575f80fd5b5035919050565b6001600160a01b0381168114611630575f80fd5b50565b5f805f8060808587031215611646575f80fd5b84356116518161161c565b935060208501356116618161161c565b925060408501356116718161161c565b9396929550929360600135925050565b5f805f60608486031215611693575f80fd5b833561169e8161161c565b925060208401356116ae8161161c565b929592945050506040919091013590565b5f80604083850312156116d0575f80fd5b82356116db8161161c565b915060208301356116eb8161161c565b809150509250929050565b5f805f805f805f60e0888a03121561170c575f80fd5b87356117178161161c565b965060208801356117278161161c565b96999698505050506040850135946060810135946080820135945060a0820135935060c0909101359150565b5f805f805f805f60e0888a031215611769575f80fd5b87356117748161161c565b965060208801356117848161161c565b955060408801356117948161161c565b969995985095966060810135965060808101359560a0820135955060c0909101359350915050565b5f805f805f60a086880312156117d0575f80fd5b85356117db8161161c565b945060208601356117eb8161161c565b94979496505050506040830135926060810135926080909101359150565b5f8083601f840112611819575f80fd5b50813567ffffffffffffffff811115611830575f80fd5b602083019150836020828501011115611847575f80fd5b9250929050565b5f805f60408486031215611860575f80fd5b833567ffffffffffffffff811115611876575f80fd5b61188286828701611809565b90945092505060208401356118968161161c565b809150509250925092565b5f805f805f8060c087890312156118b6575f80fd5b86356118c18161161c565b955060208701356118d18161161c565b945060408701356118e18161161c565b959894975094956060810135955060808101359460a0909101359350915050565b5f805f805f60a08688031215611916575f80fd5b85356119218161161c565b94506020860135935060408601359250606086013561193f8161161c565b949793965091946080013592915050565b5f8060208385031215611961575f80fd5b823567ffffffffffffffff811115611977575f80fd5b61198385828601611809565b90969095509350505050565b5f5b838110156119a9578181015183820152602001611991565b50505f910152565b5f81518084526119c881602086016020860161198f565b601f01601f19169290920160200192915050565b602081525f6119ee60208301846119b1565b9392505050565b6001600160a01b039384168152919092166020820152604081019190915260600190565b60608152600e60608201526d2a2920a729a322a92faa27a5a2a760911b608082015260a060208201525f611a5060a08301856119b1565b905082151560408301529392505050565b634e487b7160e01b5f52604160045260245ffd5b634e487b7160e01b5f52603260045260245ffd5b5f815180845260208085019450602084015f5b83811015611ac15781516001600160a01b031687529582019590820190600101611a9c565b509495945050505050565b828152604060208201525f611ae46040830184611a89565b949350505050565b604051601f8201601f1916810167ffffffffffffffff81118282101715611b1557611b15611a61565b604052919050565b5f6020808385031215611b2e575f80fd5b825167ffffffffffffffff80821115611b45575f80fd5b818501915085601f830112611b58575f80fd5b815181811115611b6a57611b6a611a61565b8060051b9150611b7b848301611aec565b8181529183018401918481019088841115611b94575f80fd5b938501935b83851015611bb257845182529385019390850190611b99565b98975050505050505050565b8181038181111561148d57634e487b7160e01b5f52601160045260245ffd5b5f60208284031215611bed575f80fd5b81516119ee8161161c565b80516001600160701b0381168114611c0e575f80fd5b919050565b5f805f60608486031215611c25575f80fd5b611c2e84611bf8565b9250611c3c60208501611bf8565b9150604084015163ffffffff81168114611896575f80fd5b5f60208284031215611c64575f80fd5b5051919050565b6001600160a01b039687168152602081019590955260408501939093526060840191909152909216608082015260a081019190915260c00190565b60018060a01b0384168152826020820152606060408201525f611ccc60608301846119b1565b95945050505050565b5f60208284031215611ce5575f80fd5b815167ffffffffffffffff80821115611cfc575f80fd5b818401915084601f830112611d0f575f80fd5b815181811115611d2157611d21611a61565b611d34601f8201601f1916602001611aec565b9150808252856020828501011115611d4a575f80fd5b611d5b81602084016020860161198f565b50949350505050565b6060815260116060820152704144445f4c49515549444954595f50415360781b608082015260a060208201525f611a5060a08301856119b1565b60608152601460608201527352454d4f56455f4c49515549444954595f50415360601b608082015260a060208201525f611a5060a08301856119b1565b85815284602082015260a060408201525f611df960a0830186611a89565b6001600160a01b0394909416606083015250608001529392505050565b606081526013606082015272535741505f544f4b454e535f464f525f50415360681b608082015260a060208201525f611a5060a08301856119b1565b818382375f9101908152919050565b600181811c90821680611e7557607f821691505b602082108103611e9357634e487b7160e01b5f52602260045260245ffd5b50919050565b601f821115611ee057805f5260205f20601f840160051c81016020851015611ebe5750805b601f840160051c820191505b81811015611edd575f8155600101611eca565b50505b505050565b67ffffffffffffffff831115611efd57611efd611a61565b611f1183611f0b8354611e61565b83611e99565b5f601f841160018114611f42575f8515611f2b5750838201355b5f19600387901b1c1916600186901b178355611edd565b5f83815260208120601f198716915b82811015611f715786850135825560209485019460019092019101611f51565b5086821015611f8d575f1960f88860031b161c19848701351681555b505060018560011b0183555050505050565b60408152826040820152828460608301375f60608483018101919091526001600160a01b03929092166020820152601f909201601f191690910101919050565b60608152600b60608201526a535741505f544f4b454e5360a81b608082015260a060208201525f611a5060a08301856119b1565b848152608060208201525f61202b6080830186611a89565b6001600160a01b03949094166040830152506060015292915050565b606081526013606082015272535741505f5041535f464f525f544f4b454e5360681b608082015260a060208201525f611a5060a08301856119b1565b60608152600f60608201526e5452414e534645525f4e415449564560881b608082015260a060208201525f611a5060a08301856119b156febdda4d8fd7211bd1688716d4b84fc10f2360545f621ea0f9ea3918f2f042ff41a26469706673582212209fd7ab33728e586313d9a69fe2b16fb0505eedf371fbb44ac63daa94b926f7c664736f6c63430008180033","linkReferences":{}},"methodIdentifiers":{"admin()":"f851a440","executeAddLiquidityPAS(address,address,uint256,uint256,uint256,uint256,uint256)":"4cc5e009","executeRemoveLiquidityPAS(address,address,address,uint256,uint256,uint256,uint256)":"59e5bf30","executeSwapExactPASForTokens(address,uint256,uint256,address,uint256)":"8e081fb2","executeSwapExactTokensForPAS(address,address,uint256,uint256,uint256)":"66651cff","executeSwapExactTokensForTokens(address,address,address,uint256,uint256,uint256)":"6f6d4a3b","executeTransferNative(address,address,uint256)":"e5eaa25d","executeTransferToken(address,address,address,uint256)":"3ec37b46","getPoolInfo(address,address)":"486e51f4","getSwapQuote(address,address,uint256)":"42606771","getToken(string)":"c1733f68","registerToken(string,address)":"69f667ed","registeredSymbols(uint256)":"ec77aa5e","router()":"f887ea40","tokenRegistry(bytes32)":"1043fa39","wpas()":"c0fbda90"},"id":15}