{"abi":[{"type":"constructor","inputs":[{"name":"_router","type":"address","internalType":"address"},{"name":"_wpas","type":"address","internalType":"address"}],"stateMutability":"nonpayable"},{"type":"function","name":"admin","inputs":[],"outputs":[{"name":"","type":"address","internalType":"address"}],"stateMutability":"view"},{"type":"function","name":"executeAddLiquidityPAS","inputs":[{"name":"wallet","type":"address","internalType":"contract AgentWallet"},{"name":"token","type":"address","internalType":"address"},{"name":"amountTokenDesired","type":"uint256","internalType":"uint256"},{"name":"amountTokenMin","type":"uint256","internalType":"uint256"},{"name":"amountPASMin","type":"uint256","internalType":"uint256"},{"name":"amountPAS","type":"uint256","internalType":"uint256"},{"name":"deadline","type":"uint256","internalType":"uint256"}],"outputs":[],"stateMutability":"nonpayable"},{"type":"function","name":"executeRemoveLiquidityPAS","inputs":[{"name":"wallet","type":"address","internalType":"contract AgentWallet"},{"name":"token","type":"address","internalType":"address"},{"name":"pair","type":"address","internalType":"address"},{"name":"liquidity","type":"uint256","internalType":"uint256"},{"name":"amountTokenMin","type":"uint256","internalType":"uint256"},{"name":"amountPASMin","type":"uint256","internalType":"uint256"},{"name":"deadline","type":"uint256","internalType":"uint256"}],"outputs":[],"stateMutability":"nonpayable"},{"type":"function","name":"executeSwapExactPASForTokens","inputs":[{"name":"wallet","type":"address","internalType":"contract AgentWallet"},{"name":"amountIn","type":"uint256","internalType":"uint256"},{"name":"amountOutMin","type":"uint256","internalType":"uint256"},{"name":"tokenOut","type":"address","internalType":"address"},{"name":"deadline","type":"uint256","internalType":"uint256"}],"outputs":[],"stateMutability":"nonpayable"},{"type":"function","name":"executeSwapExactTokensForPAS","inputs":[{"name":"wallet","type":"address","internalType":"contract AgentWallet"},{"name":"tokenIn","type":"address","internalType":"address"},{"name":"amountIn","type":"uint256","internalType":"uint256"},{"name":"amountOutMin","type":"uint256","internalType":"uint256"},{"name":"deadline","type":"uint256","internalType":"uint256"}],"outputs":[],"stateMutability":"nonpayable"},{"type":"function","name":"executeSwapExactTokensForTokens","inputs":[{"name":"wallet","type":"address","internalType":"contract AgentWallet"},{"name":"tokenIn","type":"address","internalType":"address"},{"name":"tokenOut","type":"address","internalType":"address"},{"name":"amountIn","type":"uint256","internalType":"uint256"},{"name":"amountOutMin","type":"uint256","internalType":"uint256"},{"name":"deadline","type":"uint256","internalType":"uint256"}],"outputs":[],"stateMutability":"nonpayable"},{"type":"function","name":"executeTransferNative","inputs":[{"name":"wallet","type":"address","internalType":"contract AgentWallet"},{"name":"to","type":"address","internalType":"address"},{"name":"amount","type":"uint256","internalType":"uint256"}],"outputs":[],"stateMutability":"nonpayable"},{"type":"function","name":"executeTransferToken","inputs":[{"name":"wallet","type":"address","internalType":"contract AgentWallet"},{"name":"token","type":"address","internalType":"address"},{"name":"to","type":"address","internalType":"address"},{"name":"amount","type":"uint256","internalType":"uint256"}],"outputs":[],"stateMutability":"nonpayable"},{"type":"function","name":"getPoolInfo","inputs":[{"name":"tokenA","type":"address","internalType":"address"},{"name":"tokenB","type":"address","internalType":"address"}],"outputs":[{"name":"reserveA","type":"uint112","internalType":"uint112"},{"name":"reserveB","type":"uint112","internalType":"uint112"},{"name":"totalSupply","type":"uint256","internalType":"uint256"}],"stateMutability":"view"},{"type":"function","name":"getSwapQuote","inputs":[{"name":"tokenIn","type":"address","internalType":"address"},{"name":"tokenOut","type":"address","internalType":"address"},{"name":"amountIn","type":"uint256","internalType":"uint256"}],"outputs":[{"name":"amountOut","type":"uint256","internalType":"uint256"}],"stateMutability":"view"},{"type":"function","name":"getToken","inputs":[{"name":"symbol","type":"string","internalType":"string"}],"outputs":[{"name":"","type":"address","internalType":"address"}],"stateMutability":"view"},{"type":"function","name":"registerToken","inputs":[{"name":"symbol","type":"string","internalType":"string"},{"name":"token","type":"address","internalType":"address"}],"outputs":[],"stateMutability":"nonpayable"},{"type":"function","name":"registeredSymbols","inputs":[{"name":"","type":"uint256","internalType":"uint256"}],"outputs":[{"name":"","type":"string","internalType":"string"}],"stateMutability":"view"},{"type":"function","name":"router","inputs":[],"outputs":[{"name":"","type":"address","internalType":"address"}],"stateMutability":"view"},{"type":"function","name":"tokenRegistry","inputs":[{"name":"","type":"bytes32","internalType":"bytes32"}],"outputs":[{"name":"","type":"address","internalType":"address"}],"stateMutability":"view"},{"type":"function","name":"wpas","inputs":[],"outputs":[{"name":"","type":"address","internalType":"address"}],"stateMutability":"view"},{"type":"event","name":"IntentExecuted","inputs":[{"name":"wallet","type":"address","indexed":true,"internalType":"address"},{"name":"intentType","type":"string","indexed":false,"internalType":"string"},{"name":"params","type":"bytes","indexed":false,"internalType":"bytes"},{"name":"success","type":"bool","indexed":false,"internalType":"bool"}],"anonymous":false},{"type":"event","name":"TokenRegistered","inputs":[{"name":"symbol","type":"string","indexed":false,"internalType":"string"},{"name":"token","type":"address","indexed":false,"internalType":"address"}],"anonymous":false}],"bytecode":{"object":"0x60c06040523480156200001157600080fd5b506040516200233c3803806200233c83398101604081905262000034916200007b565b6001600160a01b039182166080521660a052600080546001600160a01b03191633179055620000b3565b80516001600160a01b03811681146200007657600080fd5b919050565b600080604083850312156200008f57600080fd5b6200009a836200005e565b9150620000aa602084016200005e565b90509250929050565b60805160a0516121ec620001506000396000818161023101528181610394015281816103cf015281816104ec01528181610cf9015281816110dd01526112d20152600081816102b10152818161058d01528181610645015281816108930152818161096c01528181610a6d01528181610b4601528181610c2f01528181610dc601528181611013015281816111de01526113d101526121ec6000f3fe608060405234801561001057600080fd5b50600436106101005760003560e01c80636f6d4a3b11610097578063e5eaa25d11610066578063e5eaa25d14610266578063ec77aa5e14610279578063f851a44014610299578063f887ea40146102ac57600080fd5b80636f6d4a3b146102065780638e081fb214610219578063c0fbda901461022c578063c1733f681461025357600080fd5b80634cc5e009116100d35780634cc5e009146101ba57806359e5bf30146101cd57806366651cff146101e057806369f667ed146101f357600080fd5b80631043fa39146101055780633ec37b461461014b5780634260677114610160578063486e51f414610181575b600080fd5b61012e61011336600461167a565b6001602052600090815260409020546001600160a01b031681565b6040516001600160a01b0390911681526020015b60405180910390f35b61015e6101593660046116ab565b6102d3565b005b61017361016e3660046116fc565b61038e565b604051908152602001610142565b61019461018f36600461173d565b61063d565b604080516001600160701b03948516815293909216602084015290820152606001610142565b61015e6101c8366004611776565b61086d565b61015e6101db3660046117d8565b610a47565b61015e6101ee366004611846565b610c09565b61015e6102013660046118e0565b610ea1565b61015e610214366004611937565b610fed565b61015e61022736600461199c565b6112af565b61012e7f000000000000000000000000000000000000000000000000000000000000000081565b61012e6102613660046119ee565b6114aa565b61015e6102743660046116fc565b6114fb565b61028c61028736600461167a565b6115ce565b6040516101429190611a80565b60005461012e906001600160a01b031681565b61012e7f000000000000000000000000000000000000000000000000000000000000000081565b604051634039a5d560e11b81526001600160a01b038516906380734baa9061030390869086908690600401611a9a565b600060405180830381600087803b15801561031d57600080fd5b505af1158015610331573d6000803e3d6000fd5b50505050836001600160a01b031660008051602061219783398151915284848460405160200161036393929190611a9a565b60408051601f198184030181529082905261038091600190611abe565b60405180910390a250505050565b600060607f00000000000000000000000000000000000000000000000000000000000000006001600160a01b0316856001600160a01b0316148061040357507f00000000000000000000000000000000000000000000000000000000000000006001600160a01b0316846001600160a01b0316145b15610495576040805160028082526060820183529091602083019080368337019050509050848160008151811061043c5761043c611b1d565b60200260200101906001600160a01b031690816001600160a01b031681525050838160018151811061047057610470611b1d565b60200260200101906001600160a01b031690816001600160a01b031681525050610573565b60408051600380825260808201909252906020820160608036833701905050905084816000815181106104ca576104ca611b1d565b60200260200101906001600160a01b031690816001600160a01b0316815250507f00000000000000000000000000000000000000000000000000000000000000008160018151811061051e5761051e611b1d565b60200260200101906001600160a01b031690816001600160a01b031681525050838160028151811061055257610552611b1d565b60200260200101906001600160a01b031690816001600160a01b0316815250505b60405163d06ca61f60e01b81526000906001600160a01b037f0000000000000000000000000000000000000000000000000000000000000000169063d06ca61f906105c49087908690600401611b78565b600060405180830381865afa1580156105e1573d6000803e3d6000fd5b505050506040513d6000823e601f3d908101601f191682016040526106099190810190611bca565b9050806001825161061a9190611c70565b8151811061062a5761062a611b1d565b6020026020010151925050509392505050565b6000806000807f00000000000000000000000000000000000000000000000000000000000000006001600160a01b031663c45a01556040518163ffffffff1660e01b8152600401602060405180830381865afa1580156106a1573d6000803e3d6000fd5b505050506040513d601f19601f820116820180604052508101906106c59190611c91565b60405163e6a4390560e01b81526001600160a01b0388811660048301528781166024830152919091169063e6a4390590604401602060405180830381865afa158015610715573d6000803e3d6000fd5b505050506040513d601f19601f820116820180604052508101906107399190611c91565b90506001600160a01b0381166107965760405162461bcd60e51b815260206004820152601e60248201527f496e74656e744578656375746f723a2070616972206e6f7420666f756e64000060448201526064015b60405180910390fd5b806001600160a01b0316630902f1ac6040518163ffffffff1660e01b8152600401606060405180830381865afa1580156107d4573d6000803e3d6000fd5b505050506040513d601f19601f820116820180604052508101906107f89190611cca565b508094508195505050806001600160a01b03166318160ddd6040518163ffffffff1660e01b8152600401602060405180830381865afa15801561083f573d6000803e3d6000fd5b505050506040513d601f19601f820116820180604052508101906108639190611d0f565b9150509250925092565b6040516304d0d71d60e31b81526001600160a01b03881690632686b8e8906108bd9089907f0000000000000000000000000000000000000000000000000000000000000000908a90600401611a9a565b600060405180830381600087803b1580156108d757600080fd5b505af11580156108eb573d6000803e3d6000fd5b50505050600063f305d71960e01b878787878c8760405160240161091496959493929190611d28565b60408051601f198184030181529181526020820180516001600160e01b03166001600160e01b0319909416939093179092529051639e5d4c4960e01b81529091506001600160a01b03891690639e5d4c4990610998907f00000000000000000000000000000000000000000000000000000000000000009087908690600401611d63565b6000604051808303816000875af11580156109b7573d6000803e3d6000fd5b505050506040513d6000823e601f3d908101601f191682016040526109df9190810190611d93565b50604080516001600160a01b03898116602083015291810188905260608101859052908916906000805160206121978339815191529060800160408051601f1981840301815290829052610a3591600190611e27565b60405180910390a25050505050505050565b6040516304d0d71d60e31b81526001600160a01b03881690632686b8e890610a979088907f0000000000000000000000000000000000000000000000000000000000000000908990600401611a9a565b600060405180830381600087803b158015610ab157600080fd5b505af1158015610ac5573d6000803e3d6000fd5b5050505060006302751cec60e01b878686868c87604051602401610aee96959493929190611d28565b60408051601f198184030181529181526020820180516001600160e01b03166001600160e01b0319909416939093179092529051639e5d4c4960e01b81529091506001600160a01b03891690639e5d4c4990610b73907f0000000000000000000000000000000000000000000000000000000000000000906000908690600401611d63565b6000604051808303816000875af1158015610b92573d6000803e3d6000fd5b505050506040513d6000823e601f3d908101601f19168201604052610bba9190810190611d93565b50604080516001600160a01b038981166020830152918101879052908916906000805160206121978339815191529060600160408051601f1981840301815290829052610a3591600190611e62565b6040516304d0d71d60e31b81526001600160a01b03861690632686b8e890610c599087907f0000000000000000000000000000000000000000000000000000000000000000908890600401611a9a565b600060405180830381600087803b158015610c7357600080fd5b505af1158015610c87573d6000803e3d6000fd5b506000925060029150610c979050565b604051908082528060200260200182016040528015610cc0578160200160208202803683370190505b5090508481600081518110610cd757610cd7611b1d565b60200260200101906001600160a01b031690816001600160a01b0316815250507f000000000000000000000000000000000000000000000000000000000000000081600181518110610d2b57610d2b611b1d565b60200260200101906001600160a01b031690816001600160a01b03168152505060006318cbafe560e01b8585848a87604051602401610d6e959493929190611ea0565b60408051601f198184030181529181526020820180516001600160e01b03166001600160e01b0319909416939093179092529051639e5d4c4960e01b81529091506001600160a01b03881690639e5d4c4990610df3907f0000000000000000000000000000000000000000000000000000000000000000906000908690600401611d63565b6000604051808303816000875af1158015610e12573d6000803e3d6000fd5b505050506040513d6000823e601f3d908101601f19168201604052610e3a9190810190611d93565b50604080516001600160a01b03888116602083015291810187905260608101869052908816906000805160206121978339815191529060800160408051601f1981840301815290829052610e9091600190611edc565b60405180910390a250505050505050565b6000546001600160a01b03163314610efb5760405162461bcd60e51b815260206004820152601960248201527f496e74656e744578656375746f723a206e6f742061646d696e00000000000000604482015260640161078d565b60008383604051602001610f10929190611f19565b60408051601f198184030181529181528151602092830120600081815260019093529120549091506001600160a01b0316610f8457600280546001810182556000919091527f405787fa12a823e0f2b7631cc41b3ba8828b3321ca811111fa75cd3aa3bb5ace01610f82848683611fb4565b505b6000818152600160205260409081902080546001600160a01b0319166001600160a01b038516179055517f0fd4145e0bd1305ef15c2adcf308e601b33f5ccd4d010ae8270aa596a6b2d59490610fdf90869086908690612075565b60405180910390a150505050565b6040516304d0d71d60e31b81526001600160a01b03871690632686b8e89061103d9088907f0000000000000000000000000000000000000000000000000000000000000000908890600401611a9a565b600060405180830381600087803b15801561105757600080fd5b505af115801561106b573d6000803e3d6000fd5b50600092506003915061107b9050565b6040519080825280602002602001820160405280156110a4578160200160208202803683370190505b50905085816000815181106110bb576110bb611b1d565b60200260200101906001600160a01b031690816001600160a01b0316815250507f00000000000000000000000000000000000000000000000000000000000000008160018151811061110f5761110f611b1d565b60200260200101906001600160a01b031690816001600160a01b031681525050848160028151811061114357611143611b1d565b60200260200101906001600160a01b031690816001600160a01b03168152505060006338ed173960e01b8585848b87604051602401611186959493929190611ea0565b60408051601f198184030181529181526020820180516001600160e01b03166001600160e01b0319909416939093179092529051639e5d4c4960e01b81529091506001600160a01b03891690639e5d4c499061120b907f0000000000000000000000000000000000000000000000000000000000000000906000908690600401611d63565b6000604051808303816000875af115801561122a573d6000803e3d6000fd5b505050506040513d6000823e601f3d908101601f191682016040526112529190810190611d93565b50604080516001600160a01b038981166020830152888116828401526060820188905260808083018890528351808403909101815260a0909201928390528a169160008051602061219783398151915291610a35916001906120b6565b6040805160028082526060820183526000926020830190803683370190505090507f00000000000000000000000000000000000000000000000000000000000000008160008151811061130457611304611b1d565b60200260200101906001600160a01b031690816001600160a01b031681525050828160018151811061133857611338611b1d565b60200260200101906001600160a01b031690816001600160a01b0316815250506000637ff36ab560e01b8583898660405160240161137994939291906120eb565b60408051601f198184030181529181526020820180516001600160e01b03166001600160e01b0319909416939093179092529051639e5d4c4960e01b81529091506001600160a01b03881690639e5d4c49906113fd907f0000000000000000000000000000000000000000000000000000000000000000908a908690600401611d63565b6000604051808303816000875af115801561141c573d6000803e3d6000fd5b505050506040513d6000823e601f3d908101601f191682016040526114449190810190611d93565b50866001600160a01b031660008051602061219783398151915287868860405160200161148d939291909283526001600160a01b03919091166020830152604082015260600190565b60408051601f1981840301815290829052610e9091600190612120565b60006001600084846040516020016114c3929190611f19565b60408051601f19818403018152918152815160209283012083529082019290925201600020546001600160a01b031690505b92915050565b60408051602081018252600081529051639e5d4c4960e01b81526001600160a01b03851690639e5d4c499061153890869086908690600401611d63565b6000604051808303816000875af1158015611557573d6000803e3d6000fd5b505050506040513d6000823e601f3d908101601f1916820160405261157f9190810190611d93565b50604080516001600160a01b038581166020830152918101849052908516906000805160206121978339815191529060600160408051601f19818403018152908290526103809160019061215d565b600281815481106115de57600080fd5b9060005260206000200160009150905080546115f990611f29565b80601f016020809104026020016040519081016040528092919081815260200182805461162590611f29565b80156116725780601f1061164757610100808354040283529160200191611672565b820191906000526020600020905b81548152906001019060200180831161165557829003601f168201915b505050505081565b60006020828403121561168c57600080fd5b5035919050565b6001600160a01b03811681146116a857600080fd5b50565b600080600080608085870312156116c157600080fd5b84356116cc81611693565b935060208501356116dc81611693565b925060408501356116ec81611693565b9396929550929360600135925050565b60008060006060848603121561171157600080fd5b833561171c81611693565b9250602084013561172c81611693565b929592945050506040919091013590565b6000806040838503121561175057600080fd5b823561175b81611693565b9150602083013561176b81611693565b809150509250929050565b600080600080600080600060e0888a03121561179157600080fd5b873561179c81611693565b965060208801356117ac81611693565b96999698505050506040850135946060810135946080820135945060a0820135935060c0909101359150565b600080600080600080600060e0888a0312156117f357600080fd5b87356117fe81611693565b9650602088013561180e81611693565b9550604088013561181e81611693565b969995985095966060810135965060808101359560a0820135955060c0909101359350915050565b600080600080600060a0868803121561185e57600080fd5b853561186981611693565b9450602086013561187981611693565b94979496505050506040830135926060810135926080909101359150565b60008083601f8401126118a957600080fd5b50813567ffffffffffffffff8111156118c157600080fd5b6020830191508360208285010111156118d957600080fd5b9250929050565b6000806000604084860312156118f557600080fd5b833567ffffffffffffffff81111561190c57600080fd5b61191886828701611897565b909450925050602084013561192c81611693565b809150509250925092565b60008060008060008060c0878903121561195057600080fd5b863561195b81611693565b9550602087013561196b81611693565b9450604087013561197b81611693565b959894975094956060810135955060808101359460a0909101359350915050565b600080600080600060a086880312156119b457600080fd5b85356119bf81611693565b9450602086013593506040860135925060608601356119dd81611693565b949793965091946080013592915050565b60008060208385031215611a0157600080fd5b823567ffffffffffffffff811115611a1857600080fd5b611a2485828601611897565b90969095509350505050565b60005b83811015611a4b578181015183820152602001611a33565b50506000910152565b60008151808452611a6c816020860160208601611a30565b601f01601f19169290920160200192915050565b602081526000611a936020830184611a54565b9392505050565b6001600160a01b039384168152919092166020820152604081019190915260600190565b60608152600e60608201526d2a2920a729a322a92faa27a5a2a760911b608082015260a060208201526000611af660a0830185611a54565b905082151560408301529392505050565b634e487b7160e01b600052604160045260246000fd5b634e487b7160e01b600052603260045260246000fd5b60008151808452602080850194506020840160005b83811015611b6d5781516001600160a01b031687529582019590820190600101611b48565b509495945050505050565b828152604060208201526000611b916040830184611b33565b949350505050565b604051601f8201601f1916810167ffffffffffffffff81118282101715611bc257611bc2611b07565b604052919050565b60006020808385031215611bdd57600080fd5b825167ffffffffffffffff80821115611bf557600080fd5b818501915085601f830112611c0957600080fd5b815181811115611c1b57611c1b611b07565b8060051b9150611c2c848301611b99565b8181529183018401918481019088841115611c4657600080fd5b938501935b83851015611c6457845182529385019390850190611c4b565b98975050505050505050565b818103818111156114f557634e487b7160e01b600052601160045260246000fd5b600060208284031215611ca357600080fd5b8151611a9381611693565b80516001600160701b0381168114611cc557600080fd5b919050565b600080600060608486031215611cdf57600080fd5b611ce884611cae565b9250611cf660208501611cae565b9150604084015163ffffffff8116811461192c57600080fd5b600060208284031215611d2157600080fd5b5051919050565b6001600160a01b039687168152602081019590955260408501939093526060840191909152909216608082015260a081019190915260c00190565b60018060a01b0384168152826020820152606060408201526000611d8a6060830184611a54565b95945050505050565b600060208284031215611da557600080fd5b815167ffffffffffffffff80821115611dbd57600080fd5b818401915084601f830112611dd157600080fd5b815181811115611de357611de3611b07565b611df6601f8201601f1916602001611b99565b9150808252856020828501011115611e0d57600080fd5b611e1e816020840160208601611a30565b50949350505050565b6060815260116060820152704144445f4c49515549444954595f50415360781b608082015260a060208201526000611af660a0830185611a54565b60608152601460608201527352454d4f56455f4c49515549444954595f50415360601b608082015260a060208201526000611af660a0830185611a54565b85815284602082015260a060408201526000611ebf60a0830186611b33565b6001600160a01b0394909416606083015250608001529392505050565b606081526013606082015272535741505f544f4b454e535f464f525f50415360681b608082015260a060208201526000611af660a0830185611a54565b8183823760009101908152919050565b600181811c90821680611f3d57607f821691505b602082108103611f5d57634e487b7160e01b600052602260045260246000fd5b50919050565b601f821115611faf576000816000526020600020601f850160051c81016020861015611f8c5750805b601f850160051c820191505b81811015611fab57828155600101611f98565b5050505b505050565b67ffffffffffffffff831115611fcc57611fcc611b07565b611fe083611fda8354611f29565b83611f63565b6000601f8411600181146120145760008515611ffc5750838201355b600019600387901b1c1916600186901b17835561206e565b600083815260209020601f19861690835b828110156120455786850135825560209485019460019092019101612025565b50868210156120625760001960f88860031b161c19848701351681555b505060018560011b0183555b5050505050565b6040815282604082015282846060830137600060608483018101919091526001600160a01b03929092166020820152601f909201601f191690910101919050565b60608152600b60608201526a535741505f544f4b454e5360a81b608082015260a060208201526000611af660a0830185611a54565b8481526080602082015260006121046080830186611b33565b6001600160a01b03949094166040830152506060015292915050565b606081526013606082015272535741505f5041535f464f525f544f4b454e5360681b608082015260a060208201526000611af660a0830185611a54565b60608152600f60608201526e5452414e534645525f4e415449564560881b608082015260a060208201526000611af660a0830185611a5456febdda4d8fd7211bd1688716d4b84fc10f2360545f621ea0f9ea3918f2f042ff41a2646970667358221220ad8f5034f0e5debbfc1c07705f80577d55a2577c06e8b334dd02fdc8ee254dde64736f6c63430008180033","linkReferences":{}},"methodIdentifiers":{"admin()":"f851a440","executeAddLiquidityPAS(address,address,uint256,uint256,uint256,uint256,uint256)":"4cc5e009","executeRemoveLiquidityPAS(address,address,address,uint256,uint256,uint256,uint256)":"59e5bf30","executeSwapExactPASForTokens(address,uint256,uint256,address,uint256)":"8e081fb2","executeSwapExactTokensForPAS(address,address,uint256,uint256,uint256)":"66651cff","executeSwapExactTokensForTokens(address,address,address,uint256,uint256,uint256)":"6f6d4a3b","executeTransferNative(address,address,uint256)":"e5eaa25d","executeTransferToken(address,address,address,uint256)":"3ec37b46","getPoolInfo(address,address)":"486e51f4","getSwapQuote(address,address,uint256)":"42606771","getToken(string)":"c1733f68","registerToken(string,address)":"69f667ed","registeredSymbols(uint256)":"ec77aa5e","router()":"f887ea40","tokenRegistry(bytes32)":"1043fa39","wpas()":"c0fbda90"},"id":36}