{"abi":[{"type":"constructor","inputs":[],"stateMutability":"nonpayable"},{"type":"function","name":"admin","inputs":[],"outputs":[{"name":"","type":"address","internalType":"address"}],"stateMutability":"view"},{"type":"function","name":"estimateWeight","inputs":[{"name":"message","type":"bytes","internalType":"bytes"}],"outputs":[{"name":"refTime","type":"uint64","internalType":"uint64"},{"name":"proofSize","type":"uint64","internalType":"uint64"}],"stateMutability":"view"},{"type":"function","name":"executeXCM","inputs":[{"name":"message","type":"bytes","internalType":"bytes"}],"outputs":[],"stateMutability":"nonpayable"},{"type":"function","name":"executeXCMTransfer","inputs":[{"name":"wallet","type":"address","internalType":"contract AgentWallet"},{"name":"destParaId","type":"uint32","internalType":"uint32"},{"name":"beneficiary","type":"address","internalType":"address"},{"name":"amount","type":"uint256","internalType":"uint256"},{"name":"xcmMessage","type":"bytes","internalType":"bytes"}],"outputs":[],"stateMutability":"nonpayable"},{"type":"function","name":"getAllParachains","inputs":[],"outputs":[{"name":"","type":"uint32[]","internalType":"uint32[]"}],"stateMutability":"view"},{"type":"function","name":"getParachain","inputs":[{"name":"paraId","type":"uint32","internalType":"uint32"}],"outputs":[{"name":"name","type":"string","internalType":"string"},{"name":"active","type":"bool","internalType":"bool"}],"stateMutability":"view"},{"type":"function","name":"getParachainCount","inputs":[],"outputs":[{"name":"","type":"uint256","internalType":"uint256"}],"stateMutability":"view"},{"type":"function","name":"parachains","inputs":[{"name":"","type":"uint32","internalType":"uint32"}],"outputs":[{"name":"paraId","type":"uint32","internalType":"uint32"},{"name":"name","type":"string","internalType":"string"},{"name":"active","type":"bool","internalType":"bool"}],"stateMutability":"view"},{"type":"function","name":"registerParachain","inputs":[{"name":"paraId","type":"uint32","internalType":"uint32"},{"name":"name","type":"string","internalType":"string"}],"outputs":[],"stateMutability":"nonpayable"},{"type":"function","name":"registeredParaIds","inputs":[{"name":"","type":"uint256","internalType":"uint256"}],"outputs":[{"name":"","type":"uint32","internalType":"uint32"}],"stateMutability":"view"},{"type":"function","name":"sendXCM","inputs":[{"name":"destination","type":"bytes","internalType":"bytes"},{"name":"message","type":"bytes","internalType":"bytes"}],"outputs":[],"stateMutability":"nonpayable"},{"type":"function","name":"xcm","inputs":[],"outputs":[{"name":"","type":"address","internalType":"contract IXcm"}],"stateMutability":"view"},{"type":"event","name":"ParachainRegistered","inputs":[{"name":"paraId","type":"uint32","indexed":false,"internalType":"uint32"},{"name":"name","type":"string","indexed":false,"internalType":"string"}],"anonymous":false},{"type":"event","name":"XCMMessageSent","inputs":[{"name":"destParaId","type":"uint32","indexed":true,"internalType":"uint32"},{"name":"message","type":"bytes","indexed":false,"internalType":"bytes"}],"anonymous":false},{"type":"event","name":"XCMTransferInitiated","inputs":[{"name":"wallet","type":"address","indexed":true,"internalType":"address"},{"name":"destParaId","type":"uint32","indexed":true,"internalType":"uint32"},{"name":"beneficiary","type":"address","indexed":true,"internalType":"address"},{"name":"amount","type":"uint256","indexed":false,"internalType":"uint256"},{"name":"xcmMessage","type":"bytes","indexed":false,"internalType":"bytes"}],"anonymous":false}],"bytecode":{"object":"0x60806040523480156200001157600080fd5b50600080546001600160a01b0319163317905560408051808201909152600981526820b9b9b2ba10243ab160b91b602082015262000053906103e89062000157565b620000846107d0604051806040016040528060058152602001644163616c6160d81b8152506200015760201b60201c565b620000b86107d4604051806040016040528060088152602001674d6f6f6e6265616d60c01b8152506200015760201b60201c565b620000e96107d66040518060400160405280600581526020016420b9ba30b960d91b8152506200015760201b60201c565b6200011c6107ee60405180604001604052806007815260200166109a599c9bdcdd60ca1b8152506200015760201b60201c565b620001516107f260405180604001604052806009815260200168243cb23930ba34b7b760b91b8152506200015760201b60201c565b6200045a565b63ffffffff821660009081526001602052604090206002015460ff16620001d357600280546001810182556000919091527f405787fa12a823e0f2b7631cc41b3ba8828b3321ca811111fa75cd3aa3bb5ace6008820401805460079092166004026101000a63ffffffff81810219909316928516029190911790555b6040805160608101825263ffffffff84811680835260208084018681526001858701819052600093845291829052949091208351815463ffffffff19169316929092178255925191929091908201906200022e90826200032f565b50604091820151600291909101805460ff1916911515919091179055517f6833d9958d27007a4f403afc2aa0b1fd5d434e880585b01c50011f59d3b12e1e906200027c9084908490620003fb565b60405180910390a15050565b634e487b7160e01b600052604160045260246000fd5b600181811c90821680620002b357607f821691505b602082108103620002d457634e487b7160e01b600052602260045260246000fd5b50919050565b601f8211156200032a576000816000526020600020601f850160051c81016020861015620003055750805b601f850160051c820191505b81811015620003265782815560010162000311565b5050505b505050565b81516001600160401b038111156200034b576200034b62000288565b62000363816200035c84546200029e565b84620002da565b602080601f8311600181146200039b5760008415620003825750858301515b600019600386901b1c1916600185901b17855562000326565b600085815260208120601f198616915b82811015620003cc57888601518255948401946001909101908401620003ab565b5085821015620003eb5787850151600019600388901b60f8161c191681555b5050505050600190811b01905550565b63ffffffff831681526000602060406020840152835180604085015260005b8181101562000438578581018301518582016060015282016200041a565b506000606082860101526060601f19601f830116850101925050509392505050565b611023806200046a6000396000f3fe608060405234801561001057600080fd5b50600436106100b45760003560e01c80638f6960b8116100715780638f6960b814610152578063990f120114610165578063c9c678fe14610199578063d89f1d42146101c1578063ed87a975146101d6578063f851a440146101f757600080fd5b80631410c1d0146100b95780633e0fe18c146100e457806370c9b130146100f55780637caef8ee1461010a57806384f24c4b1461011d5780638a2362291461013f575b600080fd5b6100cc6100c7366004610948565b61020a565b6040516100db939291906109ba565b60405180910390f35b6002546040519081526020016100db565b610108610103366004610a2d565b6102c0565b005b610108610118366004610a6f565b61038f565b610127620a000081565b6040516001600160a01b0390911681526020016100db565b61010861014d366004610ac2565b61042c565b610108610160366004610b46565b610490565b610178610173366004610a2d565b6105d4565b6040805167ffffffffffffffff9384168152929091166020830152016100db565b6101ac6101a7366004610bc9565b610659565b60405163ffffffff90911681526020016100db565b6101c9610693565b6040516100db9190610be2565b6101e96101e4366004610948565b610717565b6040516100db929190610c2c565b600054610127906001600160a01b031681565b60016020819052600091825260409091208054918101805463ffffffff9093169261023490610c50565b80601f016020809104026020016040519081016040528092919081815260200182805461026090610c50565b80156102ad5780601f10610282576101008083540402835291602001916102ad565b820191906000526020600020905b81548152906001019060200180831161029057829003601f168201915b5050506002909301549192505060ff1683565b6040516347400c2360e01b8152600090620a0000906347400c23906102eb9086908690600401610cb3565b6040805180830381865afa158015610307573d6000803e3d6000fd5b505050506040513d601f19601f8201168201806040525081019061032b9190610cfd565b60405163d3b7e04d60e01b8152909150620a00009063d3b7e04d9061035890869086908690600401610d58565b600060405180830381600087803b15801561037257600080fd5b505af1158015610386573d6000803e3d6000fd5b50505050505050565b6000546001600160a01b031633146103e75760405162461bcd60e51b81526020600482015260166024820152752c21a6a2bc32b1baba37b91d103737ba1030b236b4b760511b60448201526064015b60405180910390fd5b6104278383838080601f01602080910402602001604051908101604052809392919081815260200183838082843760009201919091525061080392505050565b505050565b604051637f0a3bf960e01b8152620a000090637f0a3bf990610458908790879087908790600401610d95565b600060405180830381600087803b15801561047257600080fd5b505af1158015610486573d6000803e3d6000fd5b5050505050505050565b63ffffffff851660009081526001602052604090206002015460ff166104f85760405162461bcd60e51b815260206004820152601e60248201527f58434d4578656375746f723a20756e6b6e6f776e2070617261636861696e000060448201526064016103de565b604051639e5d4c4960e01b81526001600160a01b03871690639e5d4c499061052e90620a00009060009087908790600401610dc7565b6000604051808303816000875af115801561054d573d6000803e3d6000fd5b505050506040513d6000823e601f3d908101601f191682016040526105759190810190610df9565b50836001600160a01b03168563ffffffff16876001600160a01b03167f0f064015faa99ce1ceb93c362bfaaaa7f96ef3485af27f45a64e0883385d891d8686866040516105c493929190610e9b565b60405180910390a4505050505050565b6040516347400c2360e01b815260009081908190620a0000906347400c23906106039088908890600401610cb3565b6040805180830381865afa15801561061f573d6000803e3d6000fd5b505050506040513d601f19601f820116820180604052508101906106439190610cfd565b80516020909101519093509150505b9250929050565b6002818154811061066957600080fd5b9060005260206000209060089182820401919006600402915054906101000a900463ffffffff1681565b6060600280548060200260200160405190810160405280929190818152602001828054801561070d57602002820191906000526020600020906000905b82829054906101000a900463ffffffff1663ffffffff16815260200190600401906020826003010492830192600103820291508084116106d05790505b5050505050905090565b63ffffffff8082166000908152600160208181526040808420815160608181019093528154909616865292830180549195859490939092908401919061075c90610c50565b80601f016020809104026020016040519081016040528092919081815260200182805461078890610c50565b80156107d55780601f106107aa576101008083540402835291602001916107d5565b820191906000526020600020905b8154815290600101906020018083116107b857829003601f168201915b50505091835250506002919091015460ff161515602091820152810151604090910151909590945092505050565b63ffffffff821660009081526001602052604090206002015460ff1661087e57600280546001810182556000919091527f405787fa12a823e0f2b7631cc41b3ba8828b3321ca811111fa75cd3aa3bb5ace6008820401805460079092166004026101000a63ffffffff81810219909316928516029190911790555b6040805160608101825263ffffffff84811680835260208084018681526001858701819052600093845291829052949091208351815463ffffffff19169316929092178255925191929091908201906108d79082610f0e565b50604091820151600291909101805460ff1916911515919091179055517f6833d9958d27007a4f403afc2aa0b1fd5d434e880585b01c50011f59d3b12e1e906109239084908490610fce565b60405180910390a15050565b803563ffffffff8116811461094357600080fd5b919050565b60006020828403121561095a57600080fd5b6109638261092f565b9392505050565b60005b8381101561098557818101518382015260200161096d565b50506000910152565b600081518084526109a681602086016020860161096a565b601f01601f19169290920160200192915050565b63ffffffff841681526060602082015260006109d9606083018561098e565b90508215156040830152949350505050565b60008083601f8401126109fd57600080fd5b50813567ffffffffffffffff811115610a1557600080fd5b60208301915083602082850101111561065257600080fd5b60008060208385031215610a4057600080fd5b823567ffffffffffffffff811115610a5757600080fd5b610a63858286016109eb565b90969095509350505050565b600080600060408486031215610a8457600080fd5b610a8d8461092f565b9250602084013567ffffffffffffffff811115610aa957600080fd5b610ab5868287016109eb565b9497909650939450505050565b60008060008060408587031215610ad857600080fd5b843567ffffffffffffffff80821115610af057600080fd5b610afc888389016109eb565b90965094506020870135915080821115610b1557600080fd5b50610b22878288016109eb565b95989497509550505050565b6001600160a01b0381168114610b4357600080fd5b50565b60008060008060008060a08789031215610b5f57600080fd5b8635610b6a81610b2e565b9550610b786020880161092f565b94506040870135610b8881610b2e565b935060608701359250608087013567ffffffffffffffff811115610bab57600080fd5b610bb789828a016109eb565b979a9699509497509295939492505050565b600060208284031215610bdb57600080fd5b5035919050565b6020808252825182820181905260009190848201906040850190845b81811015610c2057835163ffffffff1683529284019291840191600101610bfe565b50909695505050505050565b604081526000610c3f604083018561098e565b905082151560208301529392505050565b600181811c90821680610c6457607f821691505b602082108103610c8457634e487b7160e01b600052602260045260246000fd5b50919050565b81835281816020850137506000828201602090810191909152601f909101601f19169091010190565b602081526000610cc7602083018486610c8a565b949350505050565b634e487b7160e01b600052604160045260246000fd5b805167ffffffffffffffff8116811461094357600080fd5b600060408284031215610d0f57600080fd5b6040516040810181811067ffffffffffffffff82111715610d3257610d32610ccf565b604052610d3e83610ce5565b8152610d4c60208401610ce5565b60208201529392505050565b606081526000610d6c606083018587610c8a565b905067ffffffffffffffff80845116602084015280602085015116604084015250949350505050565b604081526000610da9604083018688610c8a565b8281036020840152610dbc818587610c8a565b979650505050505050565b60018060a01b0385168152836020820152606060408201526000610def606083018486610c8a565b9695505050505050565b600060208284031215610e0b57600080fd5b815167ffffffffffffffff80821115610e2357600080fd5b818401915084601f830112610e3757600080fd5b815181811115610e4957610e49610ccf565b604051601f8201601f19908116603f01168101908382118183101715610e7157610e71610ccf565b81604052828152876020848701011115610e8a57600080fd5b610dbc83602083016020880161096a565b838152604060208201526000610eb5604083018486610c8a565b95945050505050565b601f821115610427576000816000526020600020601f850160051c81016020861015610ee75750805b601f850160051c820191505b81811015610f0657828155600101610ef3565b505050505050565b815167ffffffffffffffff811115610f2857610f28610ccf565b610f3c81610f368454610c50565b84610ebe565b602080601f831160018114610f715760008415610f595750858301515b600019600386901b1c1916600185901b178555610f06565b600085815260208120601f198616915b82811015610fa057888601518255948401946001909101908401610f81565b5085821015610fbe5787850151600019600388901b60f8161c191681555b5050505050600190811b01905550565b63ffffffff83168152604060208201526000610cc7604083018461098e56fea264697066735822122096cb3ca5002e7014c284a004b59d09ff810c8f2e7fbb9da11b7f870c33a2c8ae64736f6c63430008180033","linkReferences":{}},"methodIdentifiers":{"admin()":"f851a440","estimateWeight(bytes)":"990f1201","executeXCM(bytes)":"70c9b130","executeXCMTransfer(address,uint32,address,uint256,bytes)":"8f6960b8","getAllParachains()":"d89f1d42","getParachain(uint32)":"ed87a975","getParachainCount()":"3e0fe18c","parachains(uint32)":"1410c1d0","registerParachain(uint32,string)":"7caef8ee","registeredParaIds(uint256)":"c9c678fe","sendXCM(bytes,bytes)":"8a236229","xcm()":"84f24c4b"},"id":9}