{"abi":[{"type":"constructor","inputs":[{"name":"_name","type":"string","internalType":"string"},{"name":"_symbol","type":"string","internalType":"string"},{"name":"decimals_","type":"uint8","internalType":"uint8"},{"name":"initialSupply","type":"uint256","internalType":"uint256"}],"stateMutability":"nonpayable"},{"type":"function","name":"allowance","inputs":[{"name":"owner","type":"address","internalType":"address"},{"name":"spender","type":"address","internalType":"address"}],"outputs":[{"name":"","type":"uint256","internalType":"uint256"}],"stateMutability":"view"},{"type":"function","name":"approve","inputs":[{"name":"spender","type":"address","internalType":"address"},{"name":"value","type":"uint256","internalType":"uint256"}],"outputs":[{"name":"","type":"bool","internalType":"bool"}],"stateMutability":"nonpayable"},{"type":"function","name":"balanceOf","inputs":[{"name":"account","type":"address","internalType":"address"}],"outputs":[{"name":"","type":"uint256","internalType":"uint256"}],"stateMutability":"view"},{"type":"function","name":"decimals","inputs":[],"outputs":[{"name":"","type":"uint8","internalType":"uint8"}],"stateMutability":"view"},{"type":"function","name":"faucet","inputs":[{"name":"amount","type":"uint256","internalType":"uint256"}],"outputs":[],"stateMutability":"nonpayable"},{"type":"function","name":"mint","inputs":[{"name":"to","type":"address","internalType":"address"},{"name":"amount","type":"uint256","internalType":"uint256"}],"outputs":[],"stateMutability":"nonpayable"},{"type":"function","name":"name","inputs":[],"outputs":[{"name":"","type":"string","internalType":"string"}],"stateMutability":"view"},{"type":"function","name":"owner","inputs":[],"outputs":[{"name":"","type":"address","internalType":"address"}],"stateMutability":"view"},{"type":"function","name":"renounceOwnership","inputs":[],"outputs":[],"stateMutability":"nonpayable"},{"type":"function","name":"symbol","inputs":[],"outputs":[{"name":"","type":"string","internalType":"string"}],"stateMutability":"view"},{"type":"function","name":"totalSupply","inputs":[],"outputs":[{"name":"","type":"uint256","internalType":"uint256"}],"stateMutability":"view"},{"type":"function","name":"transfer","inputs":[{"name":"to","type":"address","internalType":"address"},{"name":"value","type":"uint256","internalType":"uint256"}],"outputs":[{"name":"","type":"bool","internalType":"bool"}],"stateMutability":"nonpayable"},{"type":"function","name":"transferFrom","inputs":[{"name":"from","type":"address","internalType":"address"},{"name":"to","type":"address","internalType":"address"},{"name":"value","type":"uint256","internalType":"uint256"}],"outputs":[{"name":"","type":"bool","internalType":"bool"}],"stateMutability":"nonpayable"},{"type":"function","name":"transferOwnership","inputs":[{"name":"newOwner","type":"address","internalType":"address"}],"outputs":[],"stateMutability":"nonpayable"},{"type":"event","name":"Approval","inputs":[{"name":"owner","type":"address","indexed":true,"internalType":"address"},{"name":"spender","type":"address","indexed":true,"internalType":"address"},{"name":"value","type":"uint256","indexed":false,"internalType":"uint256"}],"anonymous":false},{"type":"event","name":"OwnershipTransferred","inputs":[{"name":"previousOwner","type":"address","indexed":true,"internalType":"address"},{"name":"newOwner","type":"address","indexed":true,"internalType":"address"}],"anonymous":false},{"type":"event","name":"Transfer","inputs":[{"name":"from","type":"address","indexed":true,"internalType":"address"},{"name":"to","type":"address","indexed":true,"internalType":"address"},{"name":"value","type":"uint256","indexed":false,"internalType":"uint256"}],"anonymous":false},{"type":"error","name":"ERC20InsufficientAllowance","inputs":[{"name":"spender","type":"address","internalType":"address"},{"name":"allowance","type":"uint256","internalType":"uint256"},{"name":"needed","type":"uint256","internalType":"uint256"}]},{"type":"error","name":"ERC20InsufficientBalance","inputs":[{"name":"sender","type":"address","internalType":"address"},{"name":"balance","type":"uint256","internalType":"uint256"},{"name":"needed","type":"uint256","internalType":"uint256"}]},{"type":"error","name":"ERC20InvalidApprover","inputs":[{"name":"approver","type":"address","internalType":"address"}]},{"type":"error","name":"ERC20InvalidReceiver","inputs":[{"name":"receiver","type":"address","internalType":"address"}]},{"type":"error","name":"ERC20InvalidSender","inputs":[{"name":"sender","type":"address","internalType":"address"}]},{"type":"error","name":"ERC20InvalidSpender","inputs":[{"name":"spender","type":"address","internalType":"address"}]},{"type":"error","name":"OwnableInvalidOwner","inputs":[{"name":"owner","type":"address","internalType":"address"}]},{"type":"error","name":"OwnableUnauthorizedAccount","inputs":[{"name":"account","type":"address","internalType":"address"}]}],"bytecode":{"object":"0x608060405234801562000010575f80fd5b5060405162000fc138038062000fc183398101604081905262000033916200033c565b33848460036200004483826200044b565b5060046200005382826200044b565b5050506001600160a01b0381166200008557604051631e4fbdf760e01b81525f60048201526024015b60405180910390fd5b6200009081620000bf565b506005805460ff60a01b1916600160a01b60ff851602179055620000b5338262000110565b505050506200053d565b600580546001600160a01b038381166001600160a01b0319831681179093556040519116919082907f8be0079c531659141344cd1fd0a4f28419497f9722a3daafe3b4186f6b6457e0905f90a35050565b6001600160a01b0382166200013b5760405163ec442f0560e01b81525f60048201526024016200007c565b620001485f83836200014c565b5050565b6001600160a01b0383166200017a578060025f8282546200016e919062000517565b90915550620001ec9050565b6001600160a01b0383165f9081526020819052604090205481811015620001ce5760405163391434e360e21b81526001600160a01b038516600482015260248101829052604481018390526064016200007c565b6001600160a01b0384165f9081526020819052604090209082900390555b6001600160a01b0382166200020a5760028054829003905562000228565b6001600160a01b0382165f9081526020819052604090208054820190555b816001600160a01b0316836001600160a01b03167fddf252ad1be2c89b69c2b068fc378daa952ba7f163c4a11628f55a4df523b3ef836040516200026e91815260200190565b60405180910390a3505050565b634e487b7160e01b5f52604160045260245ffd5b5f82601f8301126200029f575f80fd5b81516001600160401b0380821115620002bc57620002bc6200027b565b604051601f8301601f19908116603f01168101908282118183101715620002e757620002e76200027b565b816040528381526020925086602085880101111562000304575f80fd5b5f91505b8382101562000327578582018301518183018401529082019062000308565b5f602085830101528094505050505092915050565b5f805f806080858703121562000350575f80fd5b84516001600160401b038082111562000367575f80fd5b62000375888389016200028f565b955060208701519150808211156200038b575f80fd5b506200039a878288016200028f565b935050604085015160ff81168114620003b1575f80fd5b6060959095015193969295505050565b600181811c90821680620003d657607f821691505b602082108103620003f557634e487b7160e01b5f52602260045260245ffd5b50919050565b601f8211156200044657805f5260205f20601f840160051c81016020851015620004225750805b601f840160051c820191505b8181101562000443575f81556001016200042e565b50505b505050565b81516001600160401b038111156200046757620004676200027b565b6200047f81620004788454620003c1565b84620003fb565b602080601f831160018114620004b5575f84156200049d5750858301515b5f19600386901b1c1916600185901b1785556200050f565b5f85815260208120601f198616915b82811015620004e557888601518255948401946001909101908401620004c4565b50858210156200050357878501515f19600388901b60f8161c191681555b505060018460011b0185555b505050505050565b808201808211156200053757634e487b7160e01b5f52601160045260245ffd5b92915050565b610a76806200054b5f395ff3fe608060405234801561000f575f80fd5b50600436106100e5575f3560e01c806370a082311161008857806395d89b411161006357806395d89b41146101e1578063a9059cbb146101e9578063dd62ed3e146101fc578063f2fde38b14610234575f80fd5b806370a0823114610196578063715018a6146101be5780638da5cb5b146101c6575f80fd5b806323b872dd116100c357806323b872dd1461013c578063313ce5671461014f57806340c10f191461016e5780635791589714610183575f80fd5b806306fdde03146100e9578063095ea7b31461010757806318160ddd1461012a575b5f80fd5b6100f1610247565b6040516100fe91906107ac565b60405180910390f35b61011a610115366004610813565b6102d7565b60405190151581526020016100fe565b6002545b6040519081526020016100fe565b61011a61014a36600461083b565b6102f0565b600554600160a01b900460ff1660405160ff90911681526020016100fe565b61018161017c366004610813565b610313565b005b610181610191366004610874565b610329565b61012e6101a436600461088b565b6001600160a01b03165f9081526020819052604090205490565b6101816103ae565b6005546040516001600160a01b0390911681526020016100fe565b6100f16103c1565b61011a6101f7366004610813565b6103d0565b61012e61020a3660046108ab565b6001600160a01b039182165f90815260016020908152604080832093909416825291909152205490565b61018161024236600461088b565b6103dd565b606060038054610256906108dc565b80601f0160208091040260200160405190810160405280929190818152602001828054610282906108dc565b80156102cd5780601f106102a4576101008083540402835291602001916102cd565b820191905f5260205f20905b8154815290600101906020018083116102b057829003601f168201915b5050505050905090565b5f336102e4818585610417565b60019150505b92915050565b5f336102fd858285610429565b6103088585856104a5565b506001949350505050565b61031b610502565b610325828261052f565b5050565b60055461034190600160a01b900460ff16600a610a08565b61034d90612710610a16565b8111156103a15760405162461bcd60e51b815260206004820152601f60248201527f4d6f636b546f6b656e3a206d617820313030303020706572206661756365740060448201526064015b60405180910390fd5b6103ab338261052f565b50565b6103b6610502565b6103bf5f610563565b565b606060048054610256906108dc565b5f336102e48185856104a5565b6103e5610502565b6001600160a01b03811661040e57604051631e4fbdf760e01b81525f6004820152602401610398565b6103ab81610563565b61042483838360016105b4565b505050565b6001600160a01b038381165f908152600160209081526040808320938616835292905220545f1981101561049f578181101561049157604051637dc7a0d960e11b81526001600160a01b03841660048201526024810182905260448101839052606401610398565b61049f84848484035f6105b4565b50505050565b6001600160a01b0383166104ce57604051634b637e8f60e11b81525f6004820152602401610398565b6001600160a01b0382166104f75760405163ec442f0560e01b81525f6004820152602401610398565b610424838383610686565b6005546001600160a01b031633146103bf5760405163118cdaa760e01b8152336004820152602401610398565b6001600160a01b0382166105585760405163ec442f0560e01b81525f6004820152602401610398565b6103255f8383610686565b600580546001600160a01b038381166001600160a01b0319831681179093556040519116919082907f8be0079c531659141344cd1fd0a4f28419497f9722a3daafe3b4186f6b6457e0905f90a35050565b6001600160a01b0384166105dd5760405163e602df0560e01b81525f6004820152602401610398565b6001600160a01b03831661060657604051634a1406b160e11b81525f6004820152602401610398565b6001600160a01b038085165f908152600160209081526040808320938716835292905220829055801561049f57826001600160a01b0316846001600160a01b03167f8c5be1e5ebec7d5bd14f71427d1e84f3dd0314c0f7b2291e5b200ac8c7c3b9258460405161067891815260200190565b60405180910390a350505050565b6001600160a01b0383166106b0578060025f8282546106a59190610a2d565b909155506107209050565b6001600160a01b0383165f90815260208190526040902054818110156107025760405163391434e360e21b81526001600160a01b03851660048201526024810182905260448101839052606401610398565b6001600160a01b0384165f9081526020819052604090209082900390555b6001600160a01b03821661073c5760028054829003905561075a565b6001600160a01b0382165f9081526020819052604090208054820190555b816001600160a01b0316836001600160a01b03167fddf252ad1be2c89b69c2b068fc378daa952ba7f163c4a11628f55a4df523b3ef8360405161079f91815260200190565b60405180910390a3505050565b5f602080835283518060208501525f5b818110156107d8578581018301518582016040015282016107bc565b505f604082860101526040601f19601f8301168501019250505092915050565b80356001600160a01b038116811461080e575f80fd5b919050565b5f8060408385031215610824575f80fd5b61082d836107f8565b946020939093013593505050565b5f805f6060848603121561084d575f80fd5b610856846107f8565b9250610864602085016107f8565b9150604084013590509250925092565b5f60208284031215610884575f80fd5b5035919050565b5f6020828403121561089b575f80fd5b6108a4826107f8565b9392505050565b5f80604083850312156108bc575f80fd5b6108c5836107f8565b91506108d3602084016107f8565b90509250929050565b600181811c908216806108f057607f821691505b60208210810361090e57634e487b7160e01b5f52602260045260245ffd5b50919050565b634e487b7160e01b5f52601160045260245ffd5b600181815b8085111561096257815f190482111561094857610948610914565b8085161561095557918102915b93841c939080029061092d565b509250929050565b5f82610978575060016102ea565b8161098457505f6102ea565b816001811461099a57600281146109a4576109c0565b60019150506102ea565b60ff8411156109b5576109b5610914565b50506001821b6102ea565b5060208310610133831016604e8410600b84101617156109e3575081810a6102ea565b6109ed8383610928565b805f1904821115610a0057610a00610914565b029392505050565b5f6108a460ff84168361096a565b80820281158282048414176102ea576102ea610914565b808201808211156102ea576102ea61091456fea264697066735822122074480ef39fc5b10d6938853ab0db25ee05f84f2f6b05211b4d8533636db70d1a64736f6c63430008180033","linkReferences":{}},"methodIdentifiers":{"allowance(address,address)":"dd62ed3e","approve(address,uint256)":"095ea7b3","balanceOf(address)":"70a08231","decimals()":"313ce567","faucet(uint256)":"57915897","mint(address,uint256)":"40c10f19","name()":"06fdde03","owner()":"8da5cb5b","renounceOwnership()":"715018a6","symbol()":"95d89b41","totalSupply()":"18160ddd","transfer(address,uint256)":"a9059cbb","transferFrom(address,address,uint256)":"23b872dd","transferOwnership(address)":"f2fde38b"},"id":16}